:040000000128E02FC4
:1001CA0055309600AA30960095140800220097012F
:1001DA0021009E171E088F3910389E00FC309E059C
:1001EA001D10080023001513710892007008910071
:1001FA00151615158B13E5208B171511080021000C
:10020A0019088739703899001708C13916389700C4
:10021A0017141A1A08000E29210095131F308C0092
:10022A0023008C01083024008C0021008E01230059
:10023A008E0122008E010800230015137108920016
:10024A007008910015129516151573089400720816
:10025A00930095128B13E5208B1715110800C130F6
:10026A0084008730850012005A3A031D0034C030DA
:10027A008400873085000008F000043070020318FB
:10028A00003400080800D600860087010108031D13
:10029A0008005608023E86000A300102031C702933
:1002AA007B294030F001F101F2007B08B92A0230C3
:1002BA00F0004030F101F2007B08B92A0430F00066
:1002CA004030F101F2007B08B92A4030F001F10117
:1002DA00F2007B08B92A7C08003A03195629023A27
:1002EA0003195C29063A031963296A290A30F000BE
:1002FA004030F101F2007B08B9222730FD00F530C9
:10030A00890B8529FD0B852900000A30F000403051
:10031A00F101F2007B08B9222730FD00F530890B84
:10032A009429FD0B942900000A30F0004030F101B5
:10033A00F2007B08B92220005608033E8600870196
:10034A0081010800F4017408F000D030F101F035A1
:10035A00F10D700784008730713D85001200FF3A65
:10036A00F2001200FF3AF204031DF129740803197E
:10037A0000347408F000CE30F101F035F10D700749
:10038A0084008730713D8500003FF200013FF30091
:10039A00F2005A30F3017206031D00347408F000AB
:1003AA00CE30F101F035F10D700784008730713DD0
:1003BA0085000008F2000330720203180034740842
:1003CA00F000CE30F101F035F10D7007840087306E
:1003DA00713D85000008080007307406031D282AAD
:1003EA007408F000D030F101F035F10D7007840087
:1003FA008730713D8500003FF200013FF300F200B3
:10040A005A30F3017206031D00347408F000D0302C
:10041A00F101F035F10D700784008730713D8500D8
:10042A000008F20003307202031800347408F00066
:10043A00D030F101F035F10D700784008730713D3D
:10044A008500000808000830F40A74020318003412
:10045A00A8292000F330A001A101A201A301840070
:10046A00873085000008F000F101F100F001700802
:10047A00F3007108F400F501F6017308A00474088A
:10048A00A1047508A2047608A304F23084000008C7
:10049A00F000F101F201F301A0047108A10472084D
:1004AA00A2047308A30423082204210420040319C4
:1004BA00672A200F652A210A220423040319672ABE
:1004CA00A401B72AF930A001A101A201A301840065
:1004DA00873085000008F300F201F101F00170088D
:1004EA00A0047108A1047208A2047308A304F830D6
:1004FA0084000008F000F101F201F3017108F30031
:10050A007008F200F101F0017008A0047108A1045A
:10051A007208A2047308A304F73084000008F000EC
:10052A00F101F201F3017208F3007108F200700898
:10053A00F100F0017008A0047108A1047208A20475
:10054A007308A304F63084000008F000F101F201F8
:10055A00F301A0047108A1047208A2047308A30499
:10056A00A401A40A640008002000D200640002303A
:10057A002000AB06103070020318CF2A0A30D000D0
:10058A00700EF0390438C500AB1CCD2AC515DB2A1C
:10059A00C511DB2A0630D0004030C400AB1CD72A74
:1005AA00C417D82AC4137008C50071150230D500C3
:1005BA007108D4000330D405540BEA2A7208860065
:1005CA0087010108C600D50A012B03305406031D12
:1005DA00012B7208860087010108C600720886008E
:1005EA00413FC70072088600423FC8007208860071
:1005FA00433FC9000430D507240803196B2B711631
:10060A005508443E86008701520820078100D50A12
:10061A005508443E86002008F3002108F400220809
:10062A00F5002308F6005208F700F801F901FA016B
:10063A00F3077808F43D7908F53D7A08F63D740821
:10064A00F3007508F4007608F500F60173088100D6
:10065A00D50A5508443E86002008F3002108F40014
:10066A002208F5002308F6005208F700F801F901FC
:10067A00FA01F3077808F43D7908F53D7A08F63D62
:10068A007508F3007608F400F501F6017308810095
:10069A00D50A5508443E86002008F3002108F400D4
:1006AA002208F5002308F6005208F700F801F901BC
:1006BA00FA01F3077808F43D7908F53D7A08F63D22
:1006CA007608F300F401F501F601922B5508443E31
:1006DA0086008701520820078100D50A5508443E42
:1006EA0086002008F3002108F4002208F5002308F8
:1006FA00F6005208F700F801F901FA01F307780841
:10070A00F43D7908F53D7A08F63D7408F30075085A
:10071A00F4007608F500F60173088100D50A550839
:10072A00443E8600870171088100D50AD401550824
:10073A00090709070907D1005008013ED300200024
:10074A00510853020318CE2B5308F300F336F3363D
:10075A00F3367308443E860001308701F4005308DB
:10076A000739890AB92BF435890BB82B74080105A6
:10077A000319C12B0130D4062B12541CC72B183075
:10078A00D4062B16D436D4132B1AD417D30A6400E2
:10079A00A42B5508443E8600870154088100C030C6
:1007AA00D50A21009505033095042000D40026308F
:1007BA002B11AB112B14AB16D301D100640022000C
:1007CA008E152730F300F530890BE92BF30BE92B53
:1007DA00000022008E11C430200095000B118B12EC
:1007EA00AB194F2C0B1DF52B0000200051085302AA
:1007FA000318162C2B190D2C2B18062C22008C16DC
:10080A00082C22008C12C430200095002B15322CA3
:10081A00203022008C06C430200095002B11D30A08
:10082A00322C22008C12C030210095050330950429
:10083A0043302000950064002000AB125008D3001A
:10084A005508090709070907D100540803192F2C6D
:10085A00D403322C9501AB154F2CAB1A4D2C5308EF
:10086A00F300F336F336F3367308443E860001305C
:10087A008701F40053080739890A442CF435890B97
:10088A00432C7408010503194C2C2B144D2C2B10E6
:10089A000B11F52B0B1122008C12080011210421D7
:1008AA00EB202E2222008E1634212000A700A72139
:1008BA00AB000B178B1720000C08AC000230AC05FC
:1008CA000C08B0000130B0050C08B4000430B405BF
:1008DA000C08B8001030B8050C08BC001430BC0570
:1008EA003C06031DAF2C0A30A5000F303E02031848
:1008FA00822CF930A6052614A92C23303E02031CAB
:10090A008C2C31303E0203188C2C2610AB2C323042
:10091A003E025530031C992C3E020318982CFA30DB
:10092A00A605A614A92C55303E02031CA22C63303E
:10093A003E020318A22CA610AB2C64303E02031C04
:10094A00AB2CFC30A60526156430A800BE0AB501FA
:10095A00B901B02CBE0128080319DF2CA803CB2C3F
:10096A0022008E15E32C2908A90AD7000330570262
:10097A00031CE32C083022008E062000A901E32C78
:10098A00A90A29030319E32CBF2CE12C26080739ED
:10099A00D700D8015808003A0319D42CCA2C570892
:1009AA00013A0319B52C033A0319B82C063A03196C
:1009BA00C52CCA2CF830A60522008E112000250865
:1009CA000319EC2C3C08031D3B2FA5033B2F261CC7
:1009DA00242DDF015F08090709072D3E86008701DC
:1009EA005F08090709072C3E8400850100080106F3
:1009FA0003191E2D5F08090709072C3E8600010806
:100A0A00031D102D0F30F0004030F101F2005F0895
:100A1A00B922200026105F08090709072D3E860023
:100A2A0087015F08090709072C3E84008501000831
:100A3A0081000430DF0A5F0203183B2FEF2CA61C4B
:100A4A005F2DE0010430600203183B2F600809079C
:100A5A0009072D3E860087016008090709072C3E11
:100A6A00840085010008010603195D2D6008090745
:100A7A0009072C3E86000108031D4E2D0930F0009F
:100A8A004030F101F2006008B9222000A6102200CD
:100A9A008E1120006008090709072D3E860087018C
:100AAA006008090709072C3E8400850100088100B7
:100ABA00E00A272D261DF42DE101043061020318F6
:100ACA003B2F6108090709072D3E86008701610847
:100ADA00090709072C3E840085010008010603194D
:100AEA00F22D6108090709072C3E86000108031D3B
:100AFA00E32DC1308400873085000008C000C03073
:100B0A0084000008C1002708C2001630F000073030
:100B1A00F1004030F2006108B92206302000D80006
:100B2A001330D700AD30890B982DD70B982DD80BE1
:100B3A00982D0032640022008E15C030F000073074
:100B4A00F100F720640006302000D8001330D700E7
:100B5A00AD30890BAE2DD70BAE2DD80BAE2D003292
:100B6A006400C030F0000730F10020006108F20094
:100B7A00F3012121C130F0000730F1005A30F200B0
:100B8A00F3012121640034212000A700261122004C
:100B9A008E11C13084008730850000082000C00013
:100BAA00C03084000008C1002708C2001630F000D7
:100BBA000730F1004030F2006108B92220006108D4
:100BCA00090709072D3E86008701610809070907F9
:100BDA002C3E8400850100088100E10A622DE201B1
:100BEA000430620203183B2F6208090709072D3EE9
:100BFA00860087016208090709072C3E84008501DF
:100C0A0000080106031D872E2B2F6208FB00043003
:100C1A00FC006208090709072C3E4821952E620844
:100C2A00090709072C3E860087010108031D952E36
:100C3A0062080319242E02306206031D2D2E620853
:100C4A00FB00FC016208090709072C3E4821952E82
:100C5A006208FB000230FC006208090709072C3E03
:100C6A004821952E023062026208031C592E090798
:100C7A0009072C3E860087010108031D952E62088C
:100C8A00090709072E3E86000A3001020318952E2D
:100C9A0002306202031C952E0730F0004030F10149
:100CAA00F2006208B922952EFB000430FC006208AB
:100CBA00090709072C3E4821952E02306202620874
:100CCA00031C7E2E090709072C3E860087010108AE
:100CDA000319772E0230F0004030F101F200620869
:100CEA00B922952E4030F001F101F2006208B922D2
:100CFA00952EFB000430FC006208090709072C3E08
:100D0A004821952E2708003A03190A2E013A031999
:100D1A00142E033A0319372E013A0319622E952E1F
:100D2A0020006208090709072D3E8600870162082C
:100D3A00090709072C3E84008501000881002B2F32
:100D4A006208090709072C3E860087010108031972
:100D5A00D72E6208090709072E3E86000A300102CB
:100D6A006208031CD02E090709072F3E86000108D6
:100D7A00031DCF2E0530F0004030F101F200620869
:100D8A00B92220006208090709072F3E8600870159
:100D9A008101810A6208090709072E3E8600870138
:100DAA00810A392F6208090709072E3E8600870142
:100DBA008101392F6208090709072C3E860087013D
:100DCA0001080319D72E6208090709072E3E860073
:100DDA000A3001026208031CD02E090709072F3EB8
:100DEA0086000108031DCF2E62080319002F023066
:100DFA006206031D042F4030F001F00AC22E0330B0
:100E0A00C02E023062026208031CA62E09070907D7
:100E1A002C3E8600870101080319D72E62080907AC
:100E2A0009072E3E8600323001026208031CD02ECA
:100E3A00090709072F3E86000108031DCF2E083037
:100E4A00C02E023062020318392FA52E2708003A55
:100E5A000319A52E013A0319DF2E033A0319062FA7
:100E6A00013A0319262F392FE20AF52D26080739E8
:100E7A00031DA82F0C081739031DA82FDE01622FA6
:100E8A0007305E06031D602FD030F0000730F100F6
:100E9A00F720D030F0000730F10020002B0802398B
:100EAA00F200F3012121D130F0000730F1005A306D
:100EBA00F200F30121212000DE0A08305E02031845
:100ECA00982F5E08DB00D030DC01DB35DC0DDB0758
:100EDA000730DC3D5E08D700D030D801D735D80DB1
:100EEA00570784008730583D85001200FF3AD90021
:100EFA001200FF3AD904031D452F5C08F1005B0874
:100F0A00F0002B080239F200F301212120005B08CE
:100F1A00013EF00000305C3DF1005A30F200F3016E
:100F2A0021210000640022008E1202302000D80025
:100F3A000430D700BA30890BA02FD70BA02FD80BBB
:100F4A00A02F0000602C21001708C1390C38970027
:100F5A0000006300000021001708C1390A38970011
:100F6A0000006300000021001708C13916389700F5
:100F7A0000006400602CFF34FF34FF34FF34FF3478
:100F8A00FF34FF34FF34FF34FF34FF34FF34FF34BF
:100F9A00FF34FF34FF34FF34FF34FF34FF34FF34AF
:100FAA00FF34FF34FF34FF34FF34FF34FF34FF349F
:100FBA00FF34FF34FF3420308400003085002430B1
:100FCA00E8272000532C640080010131890BE92FA6
:100FDA000034433404345F3441341F34FB345F3407
:100FEA00413478345634343412345F344234103451
:040FFA0000345F342C
:020000040001F9
:080000000000070000000700EA
:04000E004CFDFFD7CF
:00000001FF
