:040000000128E02FC4
:1002100055309600AA3096009514080022009701E8
:1002200021009E171E088F3910389E00FC309E0555
:100230001D1008002300151371089200700891002A
:10024000151615158B1308218B17151108002100A1
:1002500019088739703899001708C139163897007E
:1002600017141A1A08003129210095131F308C0029
:1002700023008C01083024008C0021008E01230013
:100280008E0122008E0108002300151371089200D0
:1002900070089100151295161515730894007208D0
:1002A000930095128B1308218B1715110800700805
:1002B000840071088500003FF200013FF300F20066
:1002C0005A30F3017206031D00347008840071086F
:1002D00085000008F2000430720203180034700830
:1002E00084007108850000080800FB008600870173
:1002F000010803199B297B08023E8600010857026A
:100300007B0803189629033E86000108031D9529E2
:100310005608F000F1015808F200550805237B0843
:10032000033E860087018101810A7B08023E860028
:100330008701810A08007B08023E8600870181014F
:100340000800D600860087010108031D0800560832
:10035000023E86000A3001020318B5297C08F0002D
:10036000F1017D08F2007B08052B0A30F000F10155
:100370007D08F2007B08052327302000D500F530EA
:10038000890BC029D50BC0290A30F000F1017D0886
:10039000F2007B08052327302000D500F530890BBB
:1003A000CF29D50BCF290A30F000F1017D08F200EA
:1003B0007B08052320005608033E86008701810143
:1003C00008002000F330A001A101A201A3018400D4
:1003D000873085000008F000F101F100F00170089D
:1003E000F3007108F400F501F6017308A004740825
:1003F000A1047508A2047608A304F2308400000862
:10040000F000F101F201F301A0047108A1047208E7
:10041000A2047308A304230822042104200403195E
:100420001A2A200F182A210A2204230403191A2A3F
:10043000A4016A2AF930A001A101A201A30184004C
:10044000873085000008F300F201F101F001700827
:10045000A0047108A1047208A2047308A304F83070
:1004600084000008F000F101F201F3017108F300CB
:100470007008F200F101F0017008A0047108A104F5
:100480007208A2047308A304F73084000008F00087
:10049000F101F201F3017208F3007108F200700833
:1004A000F100F0017008A0047108A1047208A20410
:1004B0007308A304F63084000008F000F101F20193
:1004C000F301A0047108A1047208A2047308A30434
:1004D000A401A40A64000800F8017808F200F301FE
:1004E000F235F30D7008720784007108733D8500C2
:1004F0001200FF3AF4001200FF3AF404031DC82A68
:100500007808031900347808F200F301F235F30D8E
:1005100072087007F4007308713DF500FE3074072F
:100520008400FF30753D8500003FF600013FF70075
:10053000F6005A30F7017606031D00347808F20001
:10054000F301F235F30D72087007F4007308713D82
:10055000F500FE3074078400FF30753D850000080B
:10056000F60003307602031800347808F200F30135
:10057000F235F30D72087007F4007308713DF50051
:10058000FE3074078400FF30753D850000080800C8
:1005900007307806031DFF2A7808F200F301F235D0
:1005A000F30D7008720784007108733D8500003FE9
:1005B000F400013FF500F4005A30F5017406031D04
:1005C00000347808F200F301F235F30D7008720779
:1005D00084007108733D85000008F4000330740244
:1005E000031800347808F200F301F235F30D7008B7
:1005F000720784007108733D850000080800083008
:10060000F80A7802031800346D2A2000D100640033
:1006100002302000AA061030700203181B2B0A308B
:10062000CF00700EF0390438C400AA1C192BC41571
:10063000272BC411272B0630CF004030C300AA1C43
:10064000232BC317242BC3137008C4007115023069
:10065000D4007108D3000330D305530B362B720836
:10066000860087010108C500D40A4D2B03305306CC
:10067000031D4D2B7208860087010108C500720812
:100680008600413FC60072088600423FC7007208DC
:100690008600433FC8000430D40724080319B72B51
:1006A00071165408433E86008701510820078100D7
:1006B000D40A5408433E86002008F3002108F400C1
:1006C0002208F5002308F6005108F700F801F901A7
:1006D000FA01F3077808F43D7908F53D7A08F63D0C
:1006E0007408F3007508F4007608F500F601730845
:1006F0008100D40A5408433E86002008F3002108F4
:10070000F4002208F5002308F6005108F700F8016C
:10071000F901FA01F3077808F43D7908F53D7A0804
:10072000F63D7508F3007608F400F501F60173084C
:100730008100D40A5408433E86002008F3002108B3
:10074000F4002208F5002308F6005108F700F8012C
:10075000F901FA01F3077808F43D7908F53D7A08C4
:10076000F63D7608F300F401F501F601DE2B54089E
:10077000433E86008701510820078100D40A5408AF
:10078000433E86002008F3002108F4002208F5000B
:100790002308F6005108F700F801F901FA01F30700
:1007A0007808F43D7908F53D7A08F63D7408F300C1
:1007B0007508F4007608F500F60173088100D40A84
:1007C0005408433E8600870171088100D40AD30192
:1007D0005408090709070907D0004F08013ED20055
:1007E00020005008520203181A2C5208F300F33666
:1007F000F336F3367308433E860001308701F40078
:1008000052080739890A052CF435890B042C740821
:10081000010503190D2C0130D3062A12531C132C89
:100820001830D3062A16D336D3132A1AD317D20A6E
:100830006400F02B5408433E860087015308810072
:10084000C030D40A21009505033095042000D30060
:1008500026302A11AA112A14AA16D201D000640047
:1008600022008E152730F300F530890B352CF30B61
:10087000352C000022008E11C430200095000B1191
:100880008B12AA199B2C0B1D412C00002000500834
:1008900052020318622C2A19592C2A18522C2200B1
:1008A0008C16542C22008C12C430200095002A157E
:1008B0007E2C203022008C06C430200095002A11A6
:1008C000D20A7E2C22008C12C03021009505033004
:1008D000950443302000950064002000AA124F08C0
:1008E000D2005408090709070907D0005308031963
:1008F0007B2CD3037E2C9501AA159B2CAA1A992C2C
:100900005208F300F336F336F3367308433E86009D
:1009100001308701F40052080739890A902CF43518
:10092000890B8F2C740801050319982C2A14992C13
:100930002A100B11412C0B1122008C1208003421BB
:1009400027210E21E12122008E16C030F0008730D1
:10095000F10057212000A700D030F0008730F100CF
:100960006C22AA000B178B1720000C08AB0002307A
:10097000AB050C08AF000130AF050C08B300043024
:10098000B3050C08B7001030B7050C08BB001430D5
:10099000BB053B06031D032D0530A5000F303D02AE
:1009A0000318D62CF930A6052614FD2C23303D0261
:1009B000031CE02C31303D020318E02C2610FF2CE4
:1009C00032303D025530031CED2C3D020318EC2C57
:1009D000FA30A605A614FD2C55303D02031CF62C5A
:1009E00063303D020318F62CA610FF2C64303D0244
:1009F000031CFF2CFC30A60526156430A800BD0A98
:100A0000B401B801042DBD0128080319332DA80332
:100A10001F2D22008E15372D2908A90AD900033071
:100A20005902031C372D083022008E062000A90130
:100A3000372DA90A29030319372D132D352D260823
:100A40000739D900DA015A08003A0319282D1E2D5A
:100A50005908013A0319092D033A03190C2D063AD6
:100A60000319192D1E2DF830A60522008E11200025
:100A700025080319402D3B08031D3B2FA5033B2FE1
:100A8000261C782DE0016008090709072C3E860026
:100A900087016008090709072B3E840085010008CB
:100AA00001060319722D6008090709072B3E86000D
:100AB0000108031D642D0F30F0003F30F101F200FA
:100AC00060080523200026106008090709072C3E4E
:100AD000860087016008090709072B3E840085010D
:100AE000000881000430E00A600203183B2F432D08
:100AF000A61CB32DE1010430610203183B2F6108ED
:100B0000090709072C3E86008701610809070907C4
:100B10002B3E84008501000801060319B12D6108F0
:100B2000090709072B3E86000108031DA22D093085
:100B3000F0003F30F101F200610805232000A6100B
:100B400022008E1120006108090709072C3E86004B
:100B500087016108090709072B3E84008501000809
:100B60008100E10A7B2D261D172EE201043062026E
:100B700003183B2F6208090709072C3E86008701EE
:100B80006208090709072B3E840085010008010659
:100B90000319152E6208090709072B3E8600010874
:100BA000031D062E640022008E15C030F0000730B1
:100BB000F1001A216400C030F0000730F10020007D
:100BC0006208F200F30144216400C130F0000730F4
:100BD000F1005A30F200F301442164000630200095
:100BE000DA001330D900AD30890BF42DD90BF42D78
:100BF000DA0BF42D00326400C030F0008730F100D1
:100C000057212000A700261122008E112000620823
:100C1000090709072C3E86008701620809070907B2
:100C20002B3E8400850100088100E20AB62DE30115
:100C30000430630203183B2F6308090709072C3EA1
:100C4000860087016308090709072B3E8400850198
:100C500000080106031DAB2E2A2F6308FB00043099
:100C6000FC003F30FD006308090709072B3EA12166
:100C7000B92E63080319402E02306306031D4B2E64
:100C80006308FB003F30FC01FD006308090709070A
:100C90002B3EA121B92E6308FB000230FC003F303F
:100CA000FD006308090709072B3EA121B92E023078
:100CB00063026308031C792E090709072B3E86008F
:100CC00087010108031DB92E6308090709072D3E96
:100CD00086000A3001020318B92E02306302031C99
:100CE000B92E0730F0003F30F101F2006308052310
:100CF000B92EFB000430FC003F30FD0063080907FB
:100D000009072B3EA121B92E023063026308031CA0
:100D1000A02E090709072B3E860087010108031949
:100D2000992E0230F0003F30F101F20063080523F4
:100D3000B92E3F30F001F101F20063080523B92E0E
:100D4000FB000430FC003F30FD0063080907090781
:100D50002B3EA121B92E2708003A03192D2E013A66
:100D60000319392E033A0319572E013A0319842E19
:100D7000B92E20006308090709072C3E8600870169
:100D80006308090709072B3E8400850100088100DC
:100D90002A2F6308D5000530D6000930D7003F3030
:100DA000D8006308090709072B3E7521382F63080F
:100DB0000319DE2E02306306031DEC2E6308D500F6
:100DC0000930D601D60AD7003F30D800630809079A
:100DD00009072B3E7521382F6308D5000330D60054
:100DE0000930D7003F30D8006308090709072B3EB8
:100DF0007521382F023063026308D50003180C2FC9
:100E00000530D6000930D7003F30D8006308090705
:100E100009072B3E7521382F0830D6003130D70016
:100E20003F30D8006308090709072B3E7521382F8A
:100E3000023063020318382F6308D5000530D6004E
:100E40000930D7003F30D8006308090709072B3E57
:100E50007521382F2708003A0319C92E013A0319C2
:100E6000D72E033A0319FA2E013A0319182F382FF7
:100E70002000E30A182E26080739031DA82F0C08A6
:100E80001739031DA82FDF01622F07305F06031DEE
:100E9000602FD030F0000730F1001A21D030F00080
:100EA0000730F10020002A080239F200F301442142
:100EB000D130F0000730F1005A30F200F301442144
:100EC0002000DF0A08305F020318982F5F08DD005A
:100ED000D030DE01DD35DE0DDD070730DE3D5F0899
:100EE000D900D030DA01D935DA0D590784008730BE
:100EF0005A3D85001200FF3ADB001200FF3ADB0486
:100F0000031D452F5E08F1005D08F0002A08023934
:100F1000F200F301442120005D08013EF0000030A2
:100F20005E3DF1005A30F200F301442100006400FC
:100F300022008E1202302000DA000430D900BA30CC
:100F4000890BA02FD90BA02FDA0BA02F0000B42CF7
:100F500021001708C1390C38970000006300000019
:100F600021001708C1390A3897000000630000000B
:100F700021001708C1391638970000006400B42C0E
:100F8000FF34FF34FF34FF34FF34FF34FF34FF34C9
:100F9000FF34FF34FF34FF34FF34FF34FF34FF34B9
:100FA000FF34FF34FF34FF34FF34FF34FF34FF34A9
:100FB000FF34FF34FF34FF34FF34FF34FF34FF3499
:100FC00020308400003085002330E82720009F2C4B
:100FD000640080010131890BE92F0034433404346B
:100FE0005F3441341F34FB345F3441347834563439
:0E0FF000343412345F344234103400345F3431
:020000040001F9
:080000000000070000000700EA
:04000E004CFDFFD7CF
:00000001FF
