:040000000128E02FC4
:1002AA0055309600AA3096009514080023001513BD
:1002BA007108920070089100151615158B135521B7
:1002CA008B17151108002100190887397038990011
:1002DA001708C1391638970017141A1A0800722914
:1002EA00210095131F308C0023008C010830240054
:1002FA008C0021008E0123008E0122008E0108004D
:10030A0023001513710892007008910015129516B2
:10031A001515730894007208930095128B135521D2
:10032A008B1715110800C130840087308500120030
:10033A005A3A031D0034C030840087308500000813
:10034A00F000043070020318003400080800D500D9
:10035A008600870101080319D3295508023E860041
:10036A0001087D0255080318CE29033E86000108BC
:10037A00031DCD297C08F0003F30F101F2007B0813
:10038A002B2320005508033E860087018101810A3C
:10039A005508023E86008701810A08005508023E78
:1003AA008600870181010800D500860087010108BF
:1003BA00031D08005508023E86000A300102031890
:1003CA00ED297C08F0003F30F101F2007B082B2B6D
:1003DA000A30F0003F30F101F2007B082B2327306E
:1003EA00FD00F530890BF729FD0BF72900000A30CB
:1003FA00F0003F30F101F2007B082B232730FD008B
:10040A00F530890B062AFD0B062A00000A30F00097
:10041A003F30F101F2007B082B2320005508033EF0
:10042A008600870181010800F4017408F000D030C9
:10043A00F101F035F10D700784008730713D8500B8
:10044A001200FF3AF2001200FF3AF204031D632A77
:10045A007408031900347408F000CE30F101F03545
:10046A00F10D700784008730713D8500003FF2006E
:10047A00013FF300F2005A30F3017206031D003403
:10048A007408F000CE30F101F035F10D70078400E8
:10049A008730713D85000008F200033072020318AC
:1004AA0000347408F000CE30F101F035F10D700718
:1004BA0084008730713D8500000808000730740603
:1004CA00031D9A2A7408F000D030F101F035F10DBD
:1004DA00700784008730713D8500003FF200013FBC
:1004EA00F300F2005A30F3017206031D0034740857
:1004FA00F000D030F101F035F10D7007840087303B
:10050A00713D85000008F2000330720203180034BE
:10051A007408F000D030F101F035F10D7007840055
:10052A008730713D8500000808000830F40A74021B
:10053A00031800341A2A2000F330A001A101A201F5
:10054A00A3018400873085000008F000F101F10062
:10055A00F0017008F3007108F400F501F601730860
:10056A00A0047408A1047508A2047608A304F23052
:10057A0084000008F000F101F201F301A0047108FF
:10058A00A1047208A2047308A30423082204210404
:10059A0020040319D92A200FD72A210A2204230466
:1005AA000319D92AA401292BF930A001A101A2011A
:1005BA00A3018400873085000008F300F201F101ED
:1005CA00F0017008A0047108A1047208A20473085B
:1005DA00A304F83084000008F000F101F201F301ED
:1005EA007108F3007008F200F101F0017008A0042C
:1005FA007108A1047208A2047308A304F7308400E6
:10060A000008F000F101F201F3017208F300710829
:10061A00F2007008F100F0017008A0047108A1044A
:10062A007208A2047308A304F63084000008F000DC
:10063A00F101F201F301A0047108A1047208A204F5
:10064A007308A304A401A40A640008002000D100CE
:10065A00640002302000AA06103070020318412BF1
:10066A000A30CF00700EF0390438C400AA1C3F2BA0
:10067A00C4154D2BC4114D2B0630CF004030C3009A
:10068A00AA1C492BC3174A2BC3137008C40071153F
:10069A000230D4007108D3000330D305530B5C2B0E
:1006AA007208860087010108C500D40A732B03303B
:1006BA005306031D732B7208860087010108C500C3
:1006CA0072088600413FC60072088600423FC70092
:1006DA0072088600433FC8000430D407240803196F
:1006EA00DD2B71165408433E860087015108200706
:1006FA008100D40A5408433E86002008F3002108EA
:10070A00F4002208F5002308F6005108F700F80162
:10071A00F901FA01F3077808F43D7908F53D7A08FA
:10072A00F63D7408F3007508F4007608F500F60142
:10073A0073088100D40A5408433E86002008F30057
:10074A002108F4002208F5002308F6005108F700F2
:10075A00F801F901FA01F3077808F43D7908F53D43
:10076A007A08F63D7508F3007608F400F501F601FB
:10077A0073088100D40A5408433E86002008F30017
:10078A002108F4002208F5002308F6005108F700B2
:10079A00F801F901FA01F3077808F43D7908F53D03
:1007AA007A08F63D7608F300F401F501F601042C07
:1007BA005408433E86008701510820078100D40A65
:1007CA005408433E86002008F3002108F40022085A
:1007DA00F5002308F6005108F700F801F901FA01BB
:1007EA00F3077808F43D7908F53D7A08F63D740870
:1007FA00F3007508F4007608F500F6017308810025
:10080A00D40A5408433E8600870171088100D40A3D
:10081A00D3015408090709070907D0004F08013E08
:10082A00D2002000500852020318402C5208F3004C
:10083A00F336F336F3367308433E860001308701F8
:10084A00F40052080739890A2B2CF435890B2A2C13
:10085A00740801050319332C0130D3062A12531CDC
:10086A00392C1830D3062A16D336D3132A1AD3179B
:10087A00D20A6400162C5408433E860087015308A6
:10088A008100C030D40A2100950503309504200068
:10089A00D30026302A11AA112A14AA16D201D0008E
:1008AA00640022008E152730F300F530890B5B2C8B
:1008BA00F30B5B2C000022008E11C430200095003F
:1008CA000B118B12AA19C12C0B1D672C00002000DA
:1008DA00500852020318882C2A197F2C2A18782CBF
:1008EA0022008C167A2C22008C12C430200095002B
:1008FA002A15A42C203022008C06C4302000950032
:10090A002A11D20AA42C22008C12C030210095058B
:10091A000330950443302000950064002000AA1299
:10092A004F08D2005408090709070907D0005308DD
:10093A000319A12CD303A42C9501AA15C12CAA1A18
:10094A00BF2C5208F300F336F336F3367308433EEE
:10095A00860001308701F40052080739890AB62C4B
:10096A00F435890BB52C740801050319BE2C2A1419
:10097A00BF2C2A100B11672C0B1122008C120800B5
:10098A0075216821A02222008E1698212000A70036
:10099A001922AA000B178B1720000C08AB00023093
:1009AA00AB050C08AF000130AF050C08B3000430EA
:1009BA00B3050C08B7001030B7050C08BB0014309B
:1009CA00BB053B06031D202D0A30A5000F303D0252
:1009DA000318F32CF930A60526141A2D23303D02EC
:1009EA00031CFD2C31303D020318FD2C26101C2D52
:1009FA0032303D025530031C0A2D3D020318092DE1
:100A0A00FA30A605A6141A2D55303D02031C132DE3
:100A1A0063303D020318132DA6101C2D64303D02CD
:100A2A00031C1C2DFC30A60526156430A800BD0A3F
:100A3A00B401B801212DBD0128080319502DA803BE
:100A4A003C2D22008E15542D2908A90AD600033000
:100A5A005602031C542D083022008E062000A901DC
:100A6A00542DA90A29030319542D302D522D260875
:100A7A000739D600D7015708003A0319452D3B2DEF
:100A8A005608013A0319262D033A0319292D063A65
:100A9A000319362D3B2DF830A60522008E112000B1
:100AAA00250803195D2D3B08031D3B2FA5033B2F8A
:100ABA00261C952DDD015D08090709072C3E8600D5
:100ACA0087015D08090709072B3E84008501000894
:100ADA00010603198F2D5D08090709072B3E8600B9
:100AEA000108031D812D0F30F0003F30F101F200A3
:100AFA005D082B23200026105D08090709072C3EF4
:100B0A00860087015D08090709072B3E84008501D5
:100B1A00000881000430DD0A5D0203183B2F602DB6
:100B2A00A61CD02DDE0104305E0203183B2F5E089E
:100B3A00090709072C3E860087015E08090709078D
:100B4A002B3E84008501000801060319CE2D5E089C
:100B5A00090709072B3E86000108031DBF2D09302E
:100B6A00F0003F30F101F2005E082B232000A610AE
:100B7A0022008E1120005E08090709072C3E860014
:100B8A0087015E08090709072B3E840085010008D2
:100B9A008100DE0A982D261D2E2EDF0104305F0209
:100BAA0003183B2F5F08090709072C3E86008701B7
:100BBA005F08090709072B3E840085010008010622
:100BCA0003192C2E5F08090709072B3E8600010826
:100BDA00031D1D2E22008E1506302000D70013306B
:100BEA00D600AD30890BF72DD60BF72DD70BF72D85
:100BFA0000326400C030F0000730F1005B2164006D
:100C0A00C030F0000730F10020005F08F200F30165
:100C1A008521C130F0000730F1005A30F200F301AB
:100C2A008521640098212000A700261122008E1138
:100C3A0020005F08090709072C3E860087015F0824
:100C4A00090709072B3E8400850100088100DF0A95
:100C5A00D32DE0010430600203183B2F6008090716
:100C6A0009072C3E860087016008090709072B3E01
:100C7A008400850100080106031DB82E2B2F600889
:100C8A00FB000430FC006008090709072B3ED92144
:100C9A00C62E60080319552E02306006031D5E2E0B
:100CAA006008FB00FC016008090709072B3ED921EF
:100CBA00C62E6008FB000230FC006008090709071D
:100CCA002B3ED921C62E023060026008031C8A2EF0
:100CDA00090709072B3E860087010108031DC62E56
:100CEA006008090709072D3E86000A300102031829
:100CFA00C62E02306002031CC62E0730F0003F30B9
:100D0A00F101F20060082B23C62EFB000430FC0020
:100D1A006008090709072B3ED921C62E0230600256
:100D2A006008031CAF2E090709072B3E86008701BE
:100D3A0001080319A82E0230F0003F30F101F20039
:100D4A0060082B23C62E3F30F001F101F200600843
:100D5A002B23C62EFB000430FC0060080907090794
:100D6A002B3ED921C62E2708003A0319442E013AF0
:100D7A0003194E2E033A0319682E013A0319932ECA
:100D8A00C62E20006008090709072C3E8600870145
:100D9A006008090709072B3E8400850100088100C5
:100DAA002B2F6008FB000530FC000930FD006008AD
:100DBA00090709072B3EAC21392F60080319E92ED0
:100DCA0002306006031DF52E6008FB000930FC01A5
:100DDA00FC0AFD006008090709072B3EAC21392FE0
:100DEA006008FB000330FC000930FD0060080907B9
:100DFA0009072B3EAC21392F023060026008FB0044
:100E0A000318112F0530FC000930FD00600809079E
:100E1A0009072B3EAC21392F0830FC003130FD0088
:100E2A006008090709072B3EAC21392F02306002FE
:100E3A000318392F6008FB000530FC000930FD005B
:100E4A006008090709072B3EAC21392F2708003A09
:100E5A000319D62E013A0319E22E033A0319012F78
:100E6A00013A03191B2F392FE00A2F2E26080739BA
:100E7A00031DA82F0C081739031DA82FDC01622FA8
:100E8A0007305C06031D602FD030F0000730F100F8
:100E9A005B21D030F0000730F10020002A08023927
:100EAA00F200F3018521D130F0000730F1005A3009
:100EBA00F200F30185212000DC0A08305C020318E5
:100ECA00982F5C08DA00D030DB01DA35DB0DDA075F
:100EDA000730DB3D5C08D600D030D701D635D70DB8
:100EEA00560784008730573D85001200FF3AD80024
:100EFA001200FF3AD804031D452F5B08F1005A0877
:100F0A00F0002A080239F200F301852120005A086C
:100F1A00013EF00000305B3DF1005A30F200F3016F
:100F2A0085210000640022008E1202302000D700C2
:100F3A000430D600BA30890BA02FD60BA02FD70BBE
:100F4A00A02F0000D12C21001708C1390C389700B6
:100F5A0000006300000021001708C1390A38970011
:100F6A0000006300000021001708C13916389700F5
:100F7A0000006400D12CFF34FF34FF34FF34FF3407
:100F8A00FF34FF34FF34FF34FF34FF34FF34FF34BF
:100F9A00FF34FF34FF34FF34FF34FF34FF34FF34AF
:100FAA00FF34FF34FF34FF34FF34FF34FF34FF349F
:100FBA00FF34FF34FF3420308400003085002330B2
:100FCA00E8272000C52C640080010131890BE92F34
:100FDA000034433404345F3441341F34FB345F3407
:100FEA00413478345634343412345F344234103451
:040FFA0000345F342C
:020000040001F9
:080000000000070000000700EA
:04000E004CFDFFD7CF
:00000001FF
