:040000000128E02FC4
:1002080055309600AA3096009514080022009701F0
:1002180021009E171E088F3910389E00FC309E055D
:100228001D10080023001513710892007008910032
:10023800151615158B1304218B17151108002100AD
:1002480019088739703899001708C1391638970086
:1002580017141A1A08002D29210095131F308C0035
:1002680023008C01083024008C0021008E0123001B
:100278008E0122008E0108002300151371089200D8
:1002880070089100151295161515730894007208D8
:10029800930095128B1304218B1715110800700811
:1002A800840071088500003FF200013FF300F2006E
:1002B8005A30F3017206031D003470088400710877
:1002C80085000008F2000430720203180034700838
:1002D80084007108850000080800FB00860087017B
:1002E8000108031997297B08023E86000108580275
:1002F8007B0803189229033E86000108031D9129F3
:100308005708F000F1015908F200560801237B084C
:10031800033E860087018101810A7B08023E860030
:100328008701810A08007B08023E86008701810157
:100338000800D700860087010108031D0800570838
:10034800023E86000A3001020318B1297C08F00039
:10035800F1017D08F2007B08012B0A30F000F10161
:100368007D08F2007B08012327302000D600F530F5
:10037800890BBC29D60BBC290A30F000F1017D0895
:10038800F2007B08012327302000D600F530890BC6
:10039800CB29D60BCB290A30F000F1017D08F200F9
:1003A8007B08012320005708033E8600870181014E
:1003B80008002000F330A001A101A201A3018400DC
:1003C800873085000008F000F101F100F0017008A5
:1003D800F3007108F400F501F6017308A00474082D
:1003E800A1047508A2047608A304F230840000086A
:1003F800F000F101F201F301A0047108A1047208F0
:10040800A2047308A3042308220421042004031966
:10041800162A200F142A210A220423040319162A53
:10042800A401662AF930A001A101A201A301840058
:10043800873085000008F300F201F101F00170082F
:10044800A0047108A1047208A2047308A304F83078
:1004580084000008F000F101F201F3017108F300D3
:100468007008F200F101F0017008A0047108A104FD
:100478007208A2047308A304F73084000008F0008F
:10048800F101F201F3017208F3007108F20070083B
:10049800F100F0017008A0047108A1047208A20418
:1004A8007308A304F63084000008F000F101F2019B
:1004B800F301A0047108A1047208A2047308A3043C
:1004C800A401A40A64000800F8017808F200F30106
:1004D800F235F30D7008720784007108733D8500CA
:1004E8001200FF3AF4001200FF3AF404031DC42A74
:1004F8007808031900347808F200F301F235F30D97
:1005080072087007F4007308713DF500FE30740737
:100518008400FF30753D8500003FF600013FF7007D
:10052800F6005A30F7017606031D00347808F20009
:10053800F301F235F30D72087007F4007308713D8A
:10054800F500FE3074078400FF30753D8500000813
:10055800F60003307602031800347808F200F3013D
:10056800F235F30D72087007F4007308713DF50059
:10057800FE3074078400FF30753D850000080800D0
:1005880007307806031DFB2A7808F200F301F235DC
:10059800F30D7008720784007108733D8500003FF1
:1005A800F400013FF500F4005A30F5017406031D0C
:1005B80000347808F200F301F235F30D7008720781
:1005C80084007108733D85000008F400033074024C
:1005D800031800347808F200F301F235F30D7008BF
:1005E800720784007108733D850000080800083010
:1005F800F80A780203180034692A2000D20064003F
:1006080002302000AB06103070020318172B0A3096
:10061800D000700EF0390438C500AB1C152BC51579
:10062800232BC511232B0630D0004030C400AB1C4F
:100638001F2BC417202BC4137008C5007115023076
:10064800D5007108D4000330D405540B322B72083E
:10065800860087010108C600D50A492B03305406D5
:10066800031D492B7208860087010108C60072081D
:100678008600413FC70072088600423FC8007208E2
:100688008600433FC9000430D50724080319B32B5B
:1006980071165508443E86008701520820078100DC
:1006A800D50A5508443E86002008F3002108F400C6
:1006B8002208F5002308F6005208F700F801F901AE
:1006C800FA01F3077808F43D7908F53D7A08F63D14
:1006D8007408F3007508F4007608F500F60173084D
:1006E8008100D50A5508443E86002008F3002108F9
:1006F800F4002208F5002308F6005208F700F80174
:10070800F901FA01F3077808F43D7908F53D7A080C
:10071800F63D7508F3007608F400F501F601730854
:100728008100D50A5508443E86002008F3002108B8
:10073800F4002208F5002308F6005208F700F80133
:10074800F901FA01F3077808F43D7908F53D7A08CC
:10075800F63D7608F300F401F501F601DA2B5508A9
:10076800443E86008701520820078100D50A5508B3
:10077800443E86002008F3002108F4002208F50012
:100788002308F6005208F700F801F901FA01F30707
:100798007808F43D7908F53D7A08F63D7408F300C9
:1007A8007508F4007608F500F60173088100D50A8B
:1007B8005508443E8600870171088100D50AD40196
:1007C8005508090709070907D1005008013ED30059
:1007D8002000510853020318162C5308F300F3366F
:1007E800F336F3367308443E860001308701F4007F
:1007F80053080739890A012CF435890B002C740831
:1008080001050319092C0130D4062B12541C0F2C96
:100818001830D4062B16D436D4132B1AD417D30A6F
:100828006400EC2B5508443E86008701540881007B
:10083800C030D50A21009505033095042000D40066
:1008480026302B11AB112B14AB16D301D100640049
:1008580022008E152730F300F530890B312CF30B6D
:10086800312C000022008E11C430200095000B119D
:100878008B12AB19972C0B1D3D2C00002000510842
:10088800530203185E2C2B19552C2B184E2C2200C2
:100898008C16502C22008C12C430200095002B1589
:1008A8007A2C203022008C06C430200095002B11B1
:1008B800D30A7A2C22008C12C0302100950503300F
:1008C800950443302000950064002000AB125008C6
:1008D800D3005508090709070907D1005408031967
:1008E800772CD4037A2C9501AB15972CAB1A952C41
:1008F8005308F300F336F336F3367308443E8600A4
:1009080001308701F40053080739890A8C2CF43523
:10091800890B8B2C740801050319942C2B14952C26
:100928002B100B113D2C0B1122008C1208003021CA
:1009380023210A21DD2122008E16C030F0008730E5
:10094800F10053212000A800D030F0008730F100DA
:100958006822AB000B178B1720000C08AC00023084
:10096800AC050C08B0000130B0050C08B400043028
:10097800B4050C08B8001030B8050C08BC001430D9
:10098800BC053C06031DFF2C0530A6000F303E02B7
:100998000318D22CF930A7052714F92C23303E026E
:1009A800031CDC2C31303E020318DC2C2710FB2CF6
:1009B80032303E025530031CE92C3E020318E82C65
:1009C800FA30A705A714F92C55303E02031CF22C67
:1009D80063303E020318F22CA710FB2C64303E0251
:1009E800031CFB2CFC30A70527156430A900BE0AA0
:1009F800B501B901002DBE01290803192F2DA9033E
:100A08001B2D22008E15332D2A08AA0ADA0003307E
:100A18005A02031C332D083022008E062000AA013A
:100A2800332DAA0A2A030319332D0F2D312D270838
:100A38000739DA00DB015B08003A0319242D1A2D67
:100A48005A08013A0319052D033A0319082D063AE5
:100A58000319152D1A2DF830A70522008E11200034
:100A6800260803193C2D3C08031D392FA603392FEE
:100A7800271C742DE1016108090709072D3E86002E
:100A880087016108090709072C3E840085010008D1
:100A9800010603196E2D6108090709072C3E860017
:100AA8000108031D602D0F30F0004030F101F20005
:100AB80061080123200027106108090709072D3E56
:100AC800860087016108090709072C3E8400850113
:100AD800000881000430E10A61020318392F3F2D14
:100AE800A71CAF2DE201043062020318392F6208F7
:100AF800090709072D3E86008701620809070907CB
:100B08002C3E84008501000801060319AD2D6208FA
:100B1800090709072C3E86000108031D9E2D093090
:100B2800F0004030F101F200620801232000A71014
:100B380022008E1120006208090709072D3E860051
:100B480087016208090709072C3E8400850100080F
:100B58008100E20A772D271D132EE301043063027A
:100B68000318392F6308090709072D3E86008701F6
:100B78006308090709072C3E84008501000801065F
:100B88000319112E6308090709072C3E860001087E
:100B9800031D022E640022008E15C030F0000730BD
:100BA800F10016216400C030F0000730F100200089
:100BB8006308F200F30140216400C130F0000730FF
:100BC800F1005A30F200F3014021640006302000A1
:100BD800DB001330DA00AD30890BF02DDA0BF02D85
:100BE800DB0BF02D00326400C030F0008730F100DC
:100BF80053212000A800271122008E11200063082D
:100C0800090709072D3E86008701630809070907B8
:100C18002C3E8400850100088100E30AB22DE4011E
:100C2800043064020318392F6408090709072D3EA8
:100C3800860087016408090709072C3E840085019E
:100C480000080106031DA72E282F6408FB000430A6
:100C5800FC004030FD006408090709072C3E9D216F
:100C6800B52E640803193C2E02306406031D472E76
:100C78006408FB004030FC01FD006408090709070F
:100C88002C3E9D21B52E6408FB000230FC0040304C
:100C9800FD006408090709072C3E9D21B52E023086
:100CA80064026408031C752E090709072C3E860098
:100CB80087010108031DB52E6408090709072E3EA0
:100CC80086000A3001020318B52E02306402031CA4
:100CD800B52E0730F0004030F101F200640801231E
:100CE800B52EFB000430FC004030FD006408090705
:100CF80009072C3E9D21B52E023064026408031CAE
:100D08009C2E090709072C3E860087010108031954
:100D1800952E0230F0004030F101F2006408012302
:100D2800B52E4030F001F101F20064080123B52E20
:100D3800FB000430FC004030FD0064080907090787
:100D48002C3E9D21B52E2808003A0319292E013A78
:100D58000319352E033A0319532E013A0319802E2D
:100D6800B52E03302000A5006408090709072D3EA9
:100D7800860087016408090709072C3E840085015D
:100D880000088100282F6408D6000530D7000930F4
:100D9800D8004030D9006408090709072C3E7121A2
:100DA800362F64080319DC2E02306406031DEA2E70
:100DB8006408D6000930D701D70AD8004030D900D6
:100DC8006408090709072C3E7121362F6408D600EC
:100DD8000330D7000930D8004030D900640809072B
:100DE80009072C3E7121362F023064026408D600B0
:100DF80003180A2F0530D7000930D8004030D90031
:100E08006408090709072C3E7121362F0830D700DE
:100E18003130D8004030D9006408090709072C3E52
:100E28007121362F023064020318362F6408D60069
:100E38000530D7000930D8004030D90064080907C8
:100E480009072C3E7121362F2808003A0319C72EAE
:100E5800013A0319D52E033A0319F82E013A03195A
:100E6800162F362F2000E40A142E250803193E2FCA
:100E7800A5033F2FA71527080739031DA82F0C081E
:100E880017390319A71DA82FE001672F073060063F
:100E9800031D652FD030F0000730F1001621D03047
:100EA800F0000730F10020002B080239F200F301AE
:100EB8004021D130F0000730F1005A30F200F30140
:100EC80040212000E00A0830600203189D2F6008C6
:100ED800DE00D030DF01DE35DF0DDE070730DF3D15
:100EE8006008DA00D030DB01DA35DB0D5A07840000
:100EF80087305B3D85001200FF3ADC001200FF3AA4
:100F0800DC04031D4A2F5F08F1005E08F0002B087F
:100F18000239F200F301402120005E08013EF00092
:100F280000305F3DF1005A30F200F301402100002B
:100F3800640022008E1227302000DA00F530890B79
:100F4800A32FDA0BA32FB02C21001708C1390C38B6
:100F5800970000006300000021001708C1390A3813
:100F6800970000006300000021001708C1391638F7
:100F7800970000006400B02CFF34FF34FF34FF34C6
:100F8800FF34FF34FF34FF34FF34FF34FF34FF34C1
:100F9800FF34FF34FF34FF34FF34FF34FF34FF34B1
:100FA800FF34FF34FF34FF34FF34FF34FF34FF34A1
:100FB800FF34FF34FF34FF342030840000308500D4
:100FC8002430E82720009B2C640080010131890B24
:100FD800E92F0034433404345F3441341F34FB3484
:100FE8005F34413478345634343412345F34423404
:060FF800103400345F34E8
:020000040001F9
:080000000000070000000700EA
:04000E004CFDFFD7CF
:00000001FF
