:040000000128E02FC4
:1001EE0055309600AA30960095140800220097010B
:1001FE0021009E171E088F3910389E00FC309E0578
:10020E001D10080021001908873970389900170849
:10021E00C1391638970017141A1A0800132923002B
:10022E0015137108920070089100151615158B1391
:10023E00F7208B1715110800210095131F308C0025
:10024E0023008C01083024008C0021008E01230035
:10025E008E0122008E0108002300151371089200F2
:10026E0070089100151295161515730894007208F2
:10027E00930095128B13F7208B1715110800700839
:10028E00840071088500003FF200013FF300F20088
:10029E005A30F3017206031D003470088400710891
:1002AE0085000008F2000430720203180034700852
:1002BE0084007108850000080800FB008600870195
:1002CE00010803198A297B08023E8600010858029C
:1002DE007B0803188529033E86000108031D842927
:1002EE005708F000F1015908F20056084B237B081D
:1002FE00033E860087018101810A7B08023E86004B
:10030E008701810A08007B08023E86008701810171
:10031E000800D700860087010108031D0800570852
:10032E00023E86000A3001020318A4297C08F00060
:10033E00F1017D08F2007B084B2B0A30F000F10131
:10034E007D08F2007B084B2327302000D600F530C5
:10035E00890BAF29D60BAF290A30F000F1017D08C9
:10036E00F2007B084B2327302000D600F530890B96
:10037E00BE29D60BBE290A30F000F1017D08F2002D
:10038E007B084B2320005708033E8600870181011E
:10039E000800C6014608C400C501C435C50D76085F
:1003AE00C4077708C53D4608F900FA01F935FA0D7C
:1003BE0074087907840075087A3D85001200FF3AAB
:1003CE00FB001200FF3AFB04031D042A4508F1004E
:1003DE004408F00078080239F200F30133212000BE
:1003EE004408013EF0000030453DF1005A30F20065
:1003FE00F301332100006400080007304606031D98
:10040E00202A7708F1007608F00016217708F1000F
:10041E007608F00078080239F200F30133217608ED
:10042E00013EF0000030773DF1005A30F200F3014A
:10043E00332120000830C60A460203180800D129CD
:10044E002000F330A001A101A201A3018400873096
:10045E0085000008F000F101F100F0017008F300D2
:10046E007108F400F501F6017308A0047408A104E4
:10047E007508A2047608A304F23084000008F00088
:10048E00F101F201F301A0047108A1047208A204A3
:10049E007308A30423082204210420040319602AEC
:1004AE00200F5E2A210A220423040319602AA401C4
:1004BE00B02AF930A001A101A201A3018400873066
:1004CE0085000008F300F201F101F0017008A004AC
:1004DE007108A1047208A2047308A304F830840002
:1004EE000008F000F101F201F3017108F300700849
:1004FE00F200F101F0017008A0047108A104720865
:10050E00A2047308A304F73084000008F000F10180
:10051E00F201F3017208F3007108F2007008F100A5
:10052E00F0017008A0047108A1047208A2047308F7
:10053E00A304F63084000008F000F101F201F3018B
:10054E00A0047108A1047208A2047308A304A401F4
:10055E00A40A64000800F8017808F200F301F235ED
:10056E00F30D7008720784007108733D8500120048
:10057E00FF3AF4001200FF3AF404031D0E2B780824
:10058E00031900347808F200F301F235F30D720806
:10059E007007F4007308713DF500FE307407840097
:1005AE00FF30753D8500003FF600013FF700F60075
:1005BE005A30F7017606031D00347808F200F30175
:1005CE00F235F30D72087007F4007308713DF500F3
:1005DE00FE3074078400FF30753D85000008F6007C
:1005EE0003307602031800347808F200F301F23576
:1005FE00F30D72087007F4007308713DF500FE30BC
:10060E0074078400FF30753D850000080800073030
:10061E007806031D452B7808F200F301F235F30D31
:10062E007008720784007108733D8500003FF40066
:10063E00013FF500F4005A30F5017406031D003435
:10064E007808F200F301F235F30D7008720784009A
:10065E007108733D85000008F4000330740203181E
:10066E0000347808F200F301F235F30D70087207CA
:10067E0084007108733D8500000808000830F80AF0
:10068E00780203180034B32A2000D200640002302E
:10069E002000AB06103070020318612B0A30D00018
:1006AE00700EF0390438C500AB1C5F2BC5156D2BD1
:1006BE00C5116D2B0630D0004030C400AB1C692B29
:1006CE00C4176A2BC4137008C50071150230D5000B
:1006DE007108D4000330D405540B7C2B72088600AD
:1006EE0087010108C600D50A932B03305406031D5B
:1006FE00932B7208860087010108C60072088600D7
:10070E00413FC70072088600423FC800720886004B
:10071E00433FC9000430D50724080319FD2B711679
:10072E005508443E86008701520820078100D50AED
:10073E005508443E86002008F3002108F4002208E4
:10074E00F5002308F6005208F700F801F901FA0146
:10075E00F3077808F43D7908F53D7A08F63D7408FC
:10076E00F3007508F4007608F500F60173088100B1
:10077E00D50A5508443E86002008F3002108F400EF
:10078E002208F5002308F6005208F700F801F901D7
:10079E00FA01F3077808F43D7908F53D7A08F63D3D
:1007AE007508F3007608F400F501F6017308810070
:1007BE00D50A5508443E86002008F3002108F400AF
:1007CE002208F5002308F6005208F700F801F90197
:1007DE00FA01F3077808F43D7908F53D7A08F63DFD
:1007EE007608F300F401F501F601242C5508443E79
:1007FE0086008701520820078100D50A5508443E1D
:10080E0086002008F3002108F4002208F5002308D2
:10081E00F6005208F700F801F901FA01F30778081B
:10082E00F43D7908F53D7A08F63D7408F300750835
:10083E00F4007608F500F60173088100D50A550814
:10084E00443E8600870171088100D50AD4015508FF
:10085E00090709070907D1005008013ED3002000FF
:10086E00510853020318602C5308F300F336F33685
:10087E00F3367308443E860001308701F4005308B6
:10088E000739890A4B2CF435890B4A2C740801055B
:10089E000319532C0130D4062B12541C592C18302A
:1008AE00D4062B16D436D4132B1AD417D30A6400BD
:1008BE00362C5508443E8600870154088100C0300E
:1008CE00D50A21009505033095042000D40026306A
:1008DE002B11AB112B14AB16D301D10064002200E7
:1008EE008E152730F300F530890B7B2CF30B7B2C08
:1008FE00000022008E11C430200095000B118B12C7
:10090E00AB19E12C0B1D872C00002000510853025F
:10091E000318A82C2B199F2C2B18982C22008C1600
:10092E009A2C22008C12C430200095002B15C42C5A
:10093E00203022008C06C430200095002B11D30AE3
:10094E00C42C22008C12C030210095050330950472
:10095E0043302000950064002000AB125008D300F5
:10096E005508090709070907D10054080319C12CB6
:10097E00D403C42C9501AB15E12CAB1ADF2C530814
:10098E00F300F336F336F3367308443E8600013037
:10099E008701F40053080739890AD62CF435890BE0
:1009AE00D52C740801050319DE2C2B14DF2C2B100B
:1009BE000B11872C0B1122008C1208002321092108
:1009CE00FD20272222008E16C030F0008730F10065
:1009DE0046212000A800D030F0008730F100B2226E
:1009EE00AB000B178B1720000C08AC000230AC05C7
:1009FE000C08B0000130B0050C08B4000430B4058A
:100A0E000C08B8001030B8050C08BC001430BC053A
:100A1E003C06031D492D0530A6000F303E0203187B
:100A2E001C2DF930A7052714432D23303E02031C3D
:100A3E00262D31303E020318262D2710452D32303B
:100A4E003E025530031C332D3E020318322DFA3070
:100A5E00A705A714432D55303E02031C3C2D6330D1
:100A6E003E0203183C2DA710452D64303E02031C98
:100A7E00452DFC30A70527156430A900BE0AB50127
:100A8E00B9014A2DBE0129080319792DA903652D37
:100A9E0022008E157D2D2A08AA0ADA0003305A028A
:100AAE00031C7D2D083022008E062000AA017D2D0C
:100ABE00AA0A2A0303197D2D592D7B2D27080739E4
:100ACE00DA00DB015B08003A03196E2D642D5A081B
:100ADE00013A03194F2D033A0319522D063A031901
:100AEE005F2D642DF830A70522008E1120002608F8
:100AFE000319862D3C08031D832FA603832F271C65
:100B0E00BE2DDC015C08090709072D3E8600870112
:100B1E005C08090709072C3E8400850100080106C0
:100B2E000319B82D5C08090709072C3E8600010839
:100B3E00031DAA2D0F30F0004030F101F2005C08C9
:100B4E004B23200027105C08090709072D3E86005D
:100B5E0087015C08090709072C3E840085010008FF
:100B6E0081000430DC0A5C020318832F892DA71C38
:100B7E00F92DDD0104305D020318832F5D0809078E
:100B8E0009072D3E860087015D08090709072C3EDF
:100B9E0084008501000801060319F72D5D08090779
:100BAE0009072C3E86000108031DE82D0930F000D0
:100BBE004030F101F2005D084B232000A710220007
:100BCE008E1120005D08090709072D3E860087015A
:100BDE005D08090709072C3E840085010008810085
:100BEE00DD0AC12D271D5D2EDE0104305E020318C5
:100BFE00832F5E08090709072D3E860087015E08D0
:100C0E00090709072C3E8400850100080106031917
:100C1E005B2E5E08090709072C3E86000108031D9E
:100C2E004C2E640022008E15C030F0000730F1000B
:100C3E0016216400C030F0000730F10020005E087D
:100C4E00F200F30133216400C130F0000730F100EF
:100C5E005A30F200F3013321640006302000DB002D
:100C6E001330DA00AD30890B3A2EDA0B3A2EDB0B4D
:100C7E003A2E00326400C030F0008730F100462179
:100C8E002000A800271122008E1120005E080907FF
:100C9E0009072D3E860087015E08090709072C3ECD
:100CAE008400850100088100DE0AFC2DDF0104307E
:100CBE005F020318832F5F08090709072D3E860080
:100CCE0087015F08090709072C3E8400850100088B
:100CDE000106031DF12E722F5F08FB000430FC008D
:100CEE004030FD005F08090709072C3E9021FF2EBA
:100CFE005F080319862E02305F06031D912E5F08D2
:100D0E00FB004030FC01FD005F08090709072C3E7F
:100D1E009021FF2E5F08FB000230FC004030FD00EA
:100D2E005F08090709072C3E9021FF2E02305F0253
:100D3E005F08031CBF2E090709072C3E860087019A
:100D4E000108031DFF2E5F08090709072E3E8600C6
:100D5E000A3001020318FF2E02305F02031CFF2E21
:100D6E000730F0004030F101F2005F084B23FF2EF8
:100D7E00FB000430FC004030FD005F080907090746
:100D8E002C3E9021FF2E02305F025F08031CE62EE0
:100D9E00090709072C3E8600870101080319DF2E7B
:100DAE000230F0004030F101F2005F084B23FF2EBD
:100DBE004030F001F101F2005F084B23FF2EFB00E3
:100DCE000430FC004030FD005F08090709072C3E87
:100DDE009021FF2E2808003A0319732E013A0319A9
:100DEE007F2E033A03199D2E013A0319CA2EFF2EA8
:100DFE0003302000A5005F08090709072D3E860075
:100E0E0087015F08090709072C3E84008501000849
:100E1E008100722F5F08D6000530D7000930D80048
:100E2E004030D9005F08090709072C3E6421802F46
:100E3E005F080319262F02305F06031D342F5F084B
:100E4E00D6000930D701D70AD8004030D9005F0844
:100E5E00090709072C3E6421802F5F08D600033056
:100E6E00D7000930D8004030D9005F0809070907BC
:100E7E002C3E6421802F02305F025F08D6000318DB
:100E8E00542F0530D7000930D8004030D9005F0804
:100E9E00090709072C3E6421802F0830D700313016
:100EAE00D8004030D9005F08090709072C3E64219D
:100EBE00802F02305F020318802F5F08D6000530A6
:100ECE00D7000930D8004030D9005F08090709075C
:100EDE002C3E6421802F2808003A0319112F013A65
:100EEE0003191F2F033A0319422F013A0319602FDA
:100EFE00802F2000DF0A5E2E25080319882FA503F8
:100F0E00892FA71527080739031DA82F0C08173995
:100F1E000319A71DA82FD030F4008730F500D0306C
:100F2E00F6000730F7002B08F800D02122008E12B1
:100F3E0027302000DA00F530890BA32FDA0BA32F10
:100F4E00FA2C21001708C1390C38970000006300F5
:100F5E00000021001708C1390A389700000063000D
:100F6E00000021001708C1391638970000006400F0
:100F7E00FA2CFF34FF34FF34FF34FF34FF34FF34D8
:100F8E00FF34FF34FF34FF34FF34FF34FF34FF34BB
:100F9E00FF34FF34FF34FF34FF34FF34FF34FF34AB
:100FAE00FF34FF34FF34FF34FF34FF34FF34FF349B
:100FBE00FF3420308400003085002430E8272000E4
:100FCE00E52C640080010131890BE92F0034433494
:100FDE0004345F3441341F34FB345F34413478348D
:100FEE005634343412345F344234103400345F34A7
:020000040001F9
:080000000000070000000700EA
:04000E004CFDFFD7CF
:00000001FF
