:040000000128E02FC4
:1001D20055309600AA309600951408002200970127
:1001E20021009E171E088F3910389E00FC309E0594
:1001F2001D10080023001513710892007008910069
:10020200151615158B13E9208B17151108002100FF
:1002120019088739703899001708C13916389700BC
:1002220017141A1A08001229210095131F308C0086
:1002320023008C01083024008C0021008E01230051
:100242008E0122008E01080023001513710892000E
:10025200700891001512951615157308940072080E
:10026200930095128B13E9208B1715110800C130EA
:1002720084008730850012005A3A031D0034C030D2
:100282008400873085000008F000043070020318F3
:10029200003400080800D60086008701010803190F
:1002A20073295608023E860001087D02560803188B
:1002B2006E29033E86000108031D6D297C08F000AB
:1002C2004030F101F2007B08EA2220005608033E8A
:1002D200860087018101810A5608023E8600870155
:1002E200810A08005608023E860087018101080043
:1002F200D600860087010108031D08005608023E49
:1003020086000A300102031CA129AC294030F00109
:10031200F101F2007B08EA2A0230F0004030F101DC
:10032200F2007B08EA2A0430F0004030F101F200CA
:100332007B08EA2A4030F001F101F2007B08EA2A48
:100342007C08003A03198729023A03198D29063AD3
:10035200031994299B290A30F0004030F101F20080
:100362007B08EA222730FD00F530890BB629FD0B08
:10037200B62900000A30F0004030F101F2007B089B
:10038200EA222730FD00F530890BC529FD0BC5296E
:1003920000000A30F0004030F101F2007B08EA224E
:1003A20020005608033E8600870181010800F401FF
:1003B2007408F000D030F101F035F10D70078400BF
:1003C2008730713D85001200FF3AF2001200FF3AB9
:1003D200F204031D222A7408031900347408F00081
:1003E200CE30F101F035F10D700784008730713D98
:1003F2008500003FF200013FF300F2005A30F301A2
:100402007206031D00347408F000CE30F101F0359D
:10041200F10D700784008730713D85000008F200FD
:1004220003307202031800347408F000CE30F10178
:10043200F035F10D700784008730713D85000008AA
:10044200080007307406031D592A7408F000D030E2
:10045200F101F035F10D700784008730713D8500A0
:10046200003FF200013FF300F2005A30F30172063E
:10047200031D00347408F000D030F101F035F10DA5
:10048200700784008730713D85000008F200033058
:100492007202031800347408F000D030F101F03514
:1004A200F10D700784008730713D85000008080057
:1004B2000830F40A740203180034D9292000F330FA
:1004C200A001A101A201A3018400873085000008D8
:1004D200F000F101F100F0017008F3007108F4007E
:1004E200F501F6017308A0047408A1047508A204BA
:1004F2007608A304F23084000008F000F101F20152
:10050200F301A0047108A1047208A2047308A304F1
:1005120023082204210420040319982A200F962A72
:10052200210A220423040319982AA401E82AF93093
:10053200A001A101A201A301840087308500000867
:10054200F300F201F101F0017008A0047108A104A6
:100552007208A2047308A304F83084000008F000B3
:10056200F101F201F3017108F3007008F200F101E8
:10057200F0017008A0047108A1047208A2047308B3
:10058200A304F73084000008F000F101F201F30146
:100592007208F3007108F2007008F100F0017008AF
:1005A200A0047108A1047208A2047308A304F6301F
:1005B20084000008F000F101F201F301A0047108C7
:1005C200A1047208A2047308A304A401A40A64008B
:1005D20008002000D200640002302000AB06103078
:1005E20070020318002B0A30D000700EF039043864
:1005F200C500AB1CFE2AC5150C2BC5110C2B0630F1
:10060200D0004030C400AB1C082BC417092BC41304
:100612007008C50071150230D5007108D40003308E
:10062200D405540B1B2B7208860087010108C600F3
:10063200D50A322B03305406031D322B7208860072
:1006420087010108C60072088600413FC700720890
:100652008600423FC80072088600433FC90004304A
:10066200D507240803199C2B71165508443E8600B1
:100672008701520820078100D50A5508443E8600AA
:100682002008F3002108F4002208F5002308F600F0
:100692005208F700F801F901FA01F3077808F43D6E
:1006A2007908F53D7A08F63D7408F3007508F40000
:1006B2007608F500F60173088100D50A5508443E14
:1006C20086002008F3002108F4002208F500230820
:1006D200F6005208F700F801F901FA01F307780869
:1006E200F43D7908F53D7A08F63D7508F300760881
:1006F200F400F501F60173088100D50A5508443E5D
:1007020086002008F3002108F4002208F5002308DF
:10071200F6005208F700F801F901FA01F307780828
:10072200F43D7908F53D7A08F63D7608F300F401C8
:10073200F501F601C32B5508443E86008701520895
:1007420020078100D50A5508443E86002008F300A0
:100752002108F4002208F5002308F6005208F700E9
:10076200F801F901FA01F3077808F43D7908F53D3B
:100772007A08F63D7408F3007508F4007608F5006F
:10078200F60173088100D50A5508443E86008701A8
:1007920071088100D50AD40155080907090709071C
:1007A200D1005008013ED300200051085302031823
:1007B200FF2B5308F300F336F336F3367308443E47
:1007C200860001308701F40053080739890AEA2BB1
:1007D200F435890BE92B740801050319F22B01305A
:1007E200D4062B12541CF82B1830D4062B16D436F0
:1007F200D4132B1AD417D30A6400D52B5508443EC0
:100802008600870154088100C030D50A2100950571
:10081200033095042000D40026302B11AB112B1489
:10082200AB16D301D100640022008E152730F300ED
:10083200F530890B1A2CF30B1A2C000022008E11B2
:10084200C430200095000B118B12AB19802C0B1DAC
:10085200262C00002000510853020318472C2B19A4
:100862003E2C2B18372C22008C16392C22008C128D
:10087200C430200095002B15632C203022008C06FA
:10088200C430200095002B11D30A632C22008C1255
:10089200C0302100950503309504433020009500B7
:1008A20064002000AB125008D3005508090709075D
:1008B2000907D10054080319602CD403632C950155
:1008C200AB15802CAB1A7E2C5308F300F336F336AB
:1008D200F3367308443E860001308701F400530862
:1008E2000739890A752CF435890B742C74080105B3
:1008F20003197D2C2B147E2C2B100B11262C0B1183
:1009020022008C12080015210821EF205F2222000C
:100912008E1638212000A700D821AB000B178B17A9
:1009220020000C08AC000230AC050C08B00001300D
:10093200B0050C08B4000430B4050C08B80010303F
:10094200B8050C08BC001430BC053C06031DE02CA5
:100952000A30A5000F303E020318B32CF930A60569
:100962002614DA2C23303E02031CBD2C31303E0209
:100972000318BD2C2610DC2C32303E025530031CED
:10098200CA2C3E020318C92CFA30A605A614DA2C8A
:1009920055303E02031CD32C63303E020318D32C85
:1009A200A610DC2C64303E02031CDC2CFC30A605B5
:1009B20026156430A800BE0AB501B901E12CBE01BA
:1009C20028080319102DA803FC2C22008E15142DC3
:1009D2002908A90AD70003305702031C142D083036
:1009E20022008E062000A901142DA90A2903031949
:1009F200142DF02C122D26080739D700D8015808DB
:100A0200003A0319052DFB2C5708013A0319E62C6D
:100A1200033A0319E92C063A0319F62CFB2CF83099
:100A2200A60522008E112000250803191D2D3C0861
:100A3200031D3B2FA5033B2F261C552DDF015F080D
:100A4200090709072D3E860087015F080907090784
:100A52002C3E840085010008010603194F2D5F0812
:100A6200090709072C3E86000108031D412D0F309E
:100A7200F0004030F101F2005F08EA222000261067
:100A82005F08090709072D3E860087015F080907ED
:100A920009072C3E84008501000881000430DF0A2A
:100AA2005F0203183B2F202DA61C902DE00104307D
:100AB200600203183B2F6008090709072D3E8600D4
:100AC20087016008090709072C3E84008501000898
:100AD200010603198E2D6008090709072C3E8600BE
:100AE2000108031D7F2D0930F0004030F101F200B2
:100AF2006008EA222000A61022008E112000600861
:100B0200090709072D3E86008701600809070907C2
:100B12002C3E8400850100088100E00A582D261D24
:100B2200252EE1010430610203183B2F61080907F9
:100B320009072D3E860087016108090709072C3E37
:100B420084008501000801060319232E61080907A4
:100B520009072C3E86000108031D142EC1308400B3
:100B6200873085000008C000C03084000008C10042
:100B72002708C2001630F0000730F1004030F200C2
:100B82006108EA2206302000D8001330D700AD30C9
:100B9200890BC92DD70BC92DD80BC92D0032640082
:100BA20022008E15C030F0000730F100FB206400F7
:100BB20006302000D8001330D700AD30890BDF2D6E
:100BC200D70BDF2DD80BDF2D00326400C030F000D0
:100BD2000730F10020006108F200F3012521C13045
:100BE200F0000730F1005A30F200F30125216400D1
:100BF20038212000A700261122008E11C130840066
:100C02008730850000082000C000C0308400000842
:100C1200C1002708C2001630F0000730F100403052
:100C2200F2006108EA2220006108090709072D3E47
:100C3200860087016108090709072C3E84008501A7
:100C420000088100E10A932DE201043062020318D8
:100C52003B2F6208090709072D3E860087016208BB
:100C6200090709072C3E8400850100080106031DBF
:100C7200B82E2B2F6208FB000430FC006208090723
:100C820009072C3E7921C62E6208090709072C3E66
:100C9200860087010108031DC62E62080319552E1E
:100CA20002306206031D5E2E6208FB00FC01620830
:100CB200090709072C3E7921C62E6208FB00023083
:100CC200FC006208090709072C3E7921C62E023072
:100CD20062026208031C8A2E090709072C3E86005D
:100CE20087010108031DC62E6208090709072E3E67
:100CF20086000A3001020318C62E02306202031C6B
:100D0200C62E0730F0004030F101F2006208EA22FC
:100D1200C62EFB000430FC006208090709072C3EBE
:100D22007921C62E023062026208031CAF2E090727
:100D320009072C3E8600870101080319A82E0230FC
:100D4200F0004030F101F2006208EA22C62E403083
:100D5200F001F101F2006208EA22C62EFB00043023
:100D6200FC006208090709072C3E7921C62E2708D4
:100D7200003A03193B2E013A0319452E033A03198F
:100D8200682E013A0319932EC62E20006208090725
:100D920009072D3E860087016208090709072C3ED4
:100DA20084008501000881002B2F6208FB000530BA
:100DB200FC000930FD006208090709072C3E4C219E
:100DC200392F62080319E92E02306206031DF52E3F
:100DD2006208FB000930FC01FC0AFD0062080907F9
:100DE20009072C3E4C21392F6208FB000330FC001E
:100DF2000930FD006208090709072C3E4C21392FF2
:100E0200023062026208FB000318112F0530FC0059
:100E12000930FD006208090709072C3E4C21392FD1
:100E22000830FC003130FD006208090709072C3E3A
:100E32004C21392F023062020318392F6208FB005D
:100E42000530FC000930FD006208090709072C3E45
:100E52004C21392F2708003A0319D62E013A0319DB
:100E6200E22E033A0319012F013A03191B2F392FDE
:100E7200E20A262E26080739031DA82F0C08173967
:100E8200031DA82FDE01622F07305E06031D602FAF
:100E9200D030F0000730F100FB20D030F0000730F6
:100EA200F10020002B080239F200F3012521D13094
:100EB200F0000730F1005A30F200F3012521200042
:100EC200DE0A08305E020318982F5E08DB00D0307D
:100ED200DC01DB35DC0DDB070730DC3D5E08D700CB
:100EE200D030D801D735D80D570784008730583D08
:100EF20085001200FF3AD9001200FF3AD904031DFF
:100F0200452F5C08F1005B08F0002B080239F20063
:100F1200F301252120005B08013EF00000305C3D1A
:100F2200F1005A30F200F301252100006400220092
:100F32008E1202302000D8000430D700BA30890B5C
:100F4200A02FD70BA02FD80BA02F0000912C21008F
:100F52001708C1390C389700000063000000210017
:100F62001708C1390A389700000063000000210009
:100F72001708C1391638970000006400912CFF341D
:100F8200FF34FF34FF34FF34FF34FF34FF34FF34C7
:100F9200FF34FF34FF34FF34FF34FF34FF34FF34B7
:100FA200FF34FF34FF34FF34FF34FF34FF34FF34A7
:100FB200FF34FF34FF34FF34FF34FF34FF3420307A
:100FC2008400003085002430E8272000842C64004F
:100FD20080010131890BE92F0034433404345F343A
:100FE20041341F34FB345F34413478345634343462
:0C0FF20012345F344234103400345F3499
:020000040001F9
:080000000000070000000700EA
:04000E004CFDFFD7CF
:00000001FF
