:040000000128E02FC4
:1001900055309600AA309600951408002200970169
:1001A00021009E171E088F3910389E00FC309E05D6
:1001B0001D100800210019088739703899001708A8
:1001C000C1391638970017141A1A0800E4282300BA
:1001D00015137108920070089100151615158B13F0
:1001E000C8208B1715110800210095131F308C00B3
:1001F00023008C01083024008C0021008E01230094
:100200008E0122008E010800230015137108920050
:100210007008910015129516151573089400720850
:10022000930095128B13C8208B17151108007008C6
:10023000840071088500003FF200013FF300F200E6
:100240005A30F3017206031D0034700884007108EF
:1002500085000008F20004307202031800347008B0
:1002600084007108850000080800FB0086008701F3
:10027000010803195B297B08023E86000108580229
:100280007B0803185629033E86000108031D5529E3
:100290005708F000F1015908F20056081C237B08AA
:1002A000033E860087018101810A7B08023E8600A9
:1002B0008701810A08007B08023E860087018101D0
:1002C0000800D700860087010108031D08005708B1
:1002D000023E86000A300102031875297C08F000EE
:1002E000F1017D08F2007B081C2B0A30F000F101BF
:1002F0007D08F2007B081C2327302000D600F53053
:10030000890B8029D60B80290A30F000F1017D0885
:10031000F2007B081C2327302000D600F530890B23
:100320008F29D60B8F290A30F000F1017D08F200E9
:100330007B081C2320005708033E860087018101AB
:100340000800C6014608C400C501C435C50D7608BD
:10035000C4077708C53D4608F900FA01F935FA0DDA
:1003600074087907840075087A3D85001200FF3A09
:10037000FB001200FF3AFB04031DD5294508F100DC
:100380004408F00078080239F200F301042120004B
:100390004408013EF0000030453DF1005A30F200C3
:1003A000F301042100006400080007304606031D25
:1003B000F1297708F1007608F000E7207708F100CE
:1003C0007608F00078080239F200F301042176087B
:1003D000013EF0000030773DF1005A30F200F301A9
:1003E000042120000830C60A460203180800A2298A
:1003F0002000F330A001A101A201A30184008730F5
:1004000085000008F000F101F100F0017008F30030
:100410007108F400F501F6017308A0047408A10442
:100420007508A2047608A304F23084000008F000E6
:10043000F101F201F301A0047108A1047208A20401
:100440007308A30423082204210420040319312A79
:10045000200F2F2A210A220423040319312AA40180
:10046000812AF930A001A101A201A30184008730F3
:1004700085000008F300F201F101F0017008A0040A
:100480007108A1047208A2047308A304F830840060
:100490000008F000F101F201F3017108F3007008A7
:1004A000F200F101F0017008A0047108A1047208C3
:1004B000A2047308A304F73084000008F000F101DF
:1004C000F201F3017208F3007108F2007008F10004
:1004D000F0017008A0047108A1047208A204730856
:1004E000A304F63084000008F000F101F201F301EA
:1004F000A0047108A1047208A2047308A304A40153
:10050000A40A64000800F8017808F200F301F2354B
:10051000F30D7008720784007108733D85001200A6
:10052000FF3AF4001200FF3AF404031DDF2A7808B2
:10053000031900347808F200F301F235F30D720864
:100540007007F4007308713DF500FE3074078400F5
:10055000FF30753D8500003FF600013FF700F600D3
:100560005A30F7017606031D00347808F200F301D3
:10057000F235F30D72087007F4007308713DF50051
:10058000FE3074078400FF30753D85000008F600DA
:1005900003307602031800347808F200F301F235D4
:1005A000F30D72087007F4007308713DF500FE301A
:1005B00074078400FF30753D85000008080007308F
:1005C0007806031D162B7808F200F301F235F30DBF
:1005D0007008720784007108733D8500003FF400C5
:1005E000013FF500F4005A30F5017406031D003494
:1005F0007808F200F301F235F30D700872078400F9
:100600007108733D85000008F4000330740203187C
:1006100000347808F200F301F235F30D7008720728
:1006200084007108733D8500000808000830F80A4E
:10063000780203180034842A2000D20064000230BB
:100640002000AB06103070020318322B0A30D000A5
:10065000700EF0390438C500AB1C302BC5153E2B8D
:10066000C5113E2B0630D0004030C400AB1C3A2BE5
:10067000C4173B2BC4137008C50071150230D50098
:100680007108D4000330D405540B4D2B720886003A
:1006900087010108C600D50A642B03305406031DE8
:1006A000642B7208860087010108C6007208860064
:1006B000413FC70072088600423FC80072088600AA
:1006C000433FC9000430D50724080319CE2B711607
:1006D0005508443E86008701520820078100D50A4C
:1006E0005508443E86002008F3002108F400220843
:1006F000F5002308F6005208F700F801F901FA01A5
:10070000F3077808F43D7908F53D7A08F63D74085A
:10071000F3007508F4007608F500F601730881000F
:10072000D50A5508443E86002008F3002108F4004D
:100730002208F5002308F6005208F700F801F90135
:10074000FA01F3077808F43D7908F53D7A08F63D9B
:100750007508F3007608F400F501F60173088100CE
:10076000D50A5508443E86002008F3002108F4000D
:100770002208F5002308F6005208F700F801F901F5
:10078000FA01F3077808F43D7908F53D7A08F63D5B
:100790007608F300F401F501F601F52B5508443E07
:1007A00086008701520820078100D50A5508443E7B
:1007B00086002008F3002108F4002208F500230831
:1007C000F6005208F700F801F901FA01F30778087A
:1007D000F43D7908F53D7A08F63D7408F300750894
:1007E000F4007608F500F60173088100D50A550873
:1007F000443E8600870171088100D50AD40155085E
:10080000090709070907D1005008013ED30020005D
:10081000510853020318312C5308F300F336F33612
:10082000F3367308443E860001308701F400530814
:100830000739890A1C2CF435890B1B2C7408010517
:100840000319242C0130D4062B12541C2A2C1830E6
:10085000D4062B16D436D4132B1AD417D30A64001B
:10086000072C5508443E8600870154088100C0309B
:10087000D50A21009505033095042000D4002630C8
:100880002B11AB112B14AB16D301D1006400220045
:100890008E152730F300F530890B4C2CF30B4C2CC4
:1008A000000022008E11C430200095000B118B1225
:1008B000AB19B22C0B1D582C00002000510853021C
:1008C0000318792C2B19702C2B18692C22008C16EC
:1008D0006B2C22008C12C430200095002B15952C17
:1008E000203022008C06C430200095002B11D30A42
:1008F000952C22008C12C030210095050330950400
:1009000043302000950064002000AB125008D30053
:100910005508090709070907D10054080319922C43
:10092000D403952C9501AB15B22CAB1AB02C5308FF
:10093000F300F336F336F3367308443E8600013095
:100940008701F40053080739890AA72CF435890B6D
:10095000A62C740801050319AF2C2B14B02C2B10F6
:100960000B11582C0B1122008C120800F420DA20F5
:10097000CE20F82122008E16C030F0008730F10022
:1009800017212000A800D030F0008730F10083222A
:10099000AB000B178B1720000C08AC000230AC0525
:1009A0000C08B0000130B0050C08B4000430B405E8
:1009B0000C08B8001030B8050C08BC001430BC0599
:1009C0003C06031D0B2D0530A60032303E020318F5
:1009D000ED2CF930A7052714052D32303E02643086
:1009E000031CFF2C3E020318FE2CA718F92C220032
:1009F0008E11FA302000A705A714052D64303E02A1
:100A0000031C072DFC30A70527156430A900BE0A7A
:100A1000B501B9010C2DBE01290803193B2DA9030D
:100A2000272D22008E153F2D2A08AA0ADA0003304E
:100A30005A02031C3F2D083022008E062000AA0116
:100A40003F2DAA0A2A0303193F2D1B2D3D2D2708F0
:100A50000739DA00DB015B08003A0319302D262D37
:100A60005A08013A0319112D033A0319142D063AB5
:100A70000319212D262DF830A70522008E11200004
:100A800026080319482D3C08031D832FA603832F36
:100A9000271C802DDC015C08090709072D3E860014
:100AA00087015C08090709072C3E840085010008BE
:100AB000010603197A2D5C08090709072C3E8600F8
:100AC0000108031D6C2D0F30F0004030F101F200E1
:100AD0005C081C23200027105C08090709072D3E2D
:100AE000860087015C08090709072C3E8400850100
:100AF000000881000430DC0A5C020318832F4B2DB0
:100B0000A71CBB2DDD0104305D020318832F5D0897
:100B1000090709072D3E860087015D0809070907B7
:100B20002C3E84008501000801060319B92D5D08DB
:100B3000090709072C3E86000108031DAA2D09306C
:100B4000F0004030F101F2005D081C232000A710E6
:100B500022008E1120005D08090709072D3E86003E
:100B600087015D08090709072C3E840085010008FC
:100B70008100DD0A832D271D1F2EDE0104305E0259
:100B80000318832F5E08090709072D3E8600870199
:100B90005E08090709072C3E84008501000801064C
:100BA00003191D2E5E08090709072C3E860001085F
:100BB000031D0E2E640022008E15C030F000073099
:100BC000F100E7206400C030F0000730F1002000A1
:100BD0005E08F200F30104216400C130F000073028
:100BE000F1005A30F200F3010421640006302000C5
:100BF000DB001330DA00AD30890BFC2DDA0BFC2D55
:100C0000DB0BFC2D00326400C030F0008730F100B7
:100C100017212000A800271122008E1120005E0855
:100C2000090709072D3E860087015E0809070907A5
:100C30002C3E8400850100088100DE0ABE2DDF0104
:100C400004305F020318832F5F08090709072D3E50
:100C5000860087015F08090709072C3E840085018B
:100C600000080106031DD02E722F5F08FB00043020
:100C7000FC004030FD005F08090709072C3E612198
:100C8000DE2E4030FB01FC01FD005F08090709076B
:100C90002C3E6121DE2E0230FB01FC004030FD00C5
:100CA0005F08090709072C3E6121DE2E4030FB0159
:100CB000FB0AFC01FD005F08090709072C3E6121C2
:100CC000DE2E0230FB01FB0AFC004030FD005F0815
:100CD000090709072C3E6121DE2E5F08003A03193F
:100CE000412E013A03194B2E033A0319562E013AAD
:100CF0000319612EDE2EDE2E02305F025F08031C18
:100D00009E2E090709072C3E860087010108031D56
:100D1000DE2E5F08090709072E3E86000A30010211
:100D20000318DE2E02305F02031CDE2E0730F000B7
:100D30004030F101F2005F081C23DE2EFB0004307E
:100D4000FC004030FD005F08090709072C3E6121C7
:100D5000DE2E02305F025F08031CC52E090709075B
:100D60002C3E8600870101080319BE2E0230F000D8
:100D70004030F101F2005F081C23DE2E4030F0010C
:100D8000F101F2005F081C23DE2EFB000430FC00A2
:100D90004030FD005F08090709072C3E6121DE2E67
:100DA0002808003A0319352E013A03196D2E033A2B
:100DB00003197C2E013A0319A92EDE2E03302000E0
:100DC000A5005F08090709072D3E860087015F0817
:100DD000090709072C3E8400850100088100722F55
:100DE0005F08D6000530D7000930D8004030D90060
:100DF0005F08090709072C3E3521802F0930D601ED
:100E0000D701D70AD8004030D9005F080907090781
:100E10002C3E3521802F0330D601D7000930D80071
:100E20004030D9005F08090709072C3E3521802F83
:100E30000930D601D60AD701D70AD8004030D900E8
:100E40005F08090709072C3E3521802F0330D601A2
:100E5000D60AD7000930D8004030D9005F0809070A
:100E600009072C3E3521802F5F08003A0319FE2E1A
:100E7000013A03190B2F033A0319182F013A0319EA
:100E8000262F802F02305F025F08D6000318542FF0
:100E90000530D7000930D8004030D9005F08090775
:100EA00009072C3E3521802F0830D7003130D8007B
:100EB0004030D9005F08090709072C3E3521802FF3
:100EC00002305F020318802F5F08D6000530D7007C
:100ED0000930D8004030D9005F08090709072C3EC7
:100EE0003521802F2808003A0319F02E013A031902
:100EF000342F033A0319422F013A0319602F802F30
:100F00002000DF0A202E25080319882FA503892F2A
:100F1000A71527080739031DA82F0C08173903192F
:100F2000A71DA82FD030F4008730F500D030F60090
:100F30000730F7002B08F800A12122008E1227307D
:100F40002000DA00F530890BA32FDA0BA32FCB2C6E
:100F500021001708C1390C38970000006300000019
:100F600021001708C1390A3897000000630000000B
:100F700021001708C1391638970000006400CB2CF7
:100F8000FF34FF34FF34FF34FF34FF34FF34FF34C9
:100F9000FF34FF34FF34FF34FF34FF34FF34FF34B9
:100FA000FF34FF34FF34FF34FF34FF34FF34FF34A9
:100FB000FF34FF34FF34FF34FF34FF34FF34FF3499
:100FC00020308400003085002430E8272000B62C33
:100FD000640080010131890BE92F0034433404346B
:100FE0005F3441341F34FB345F3441347834563439
:0E0FF000343412345F344234103400345F3431
:020000040001F9
:080000000000070000000700EA
:04000E004CFDFFD7CF
:00000001FF
