:100000000128E02F5D2DA72DEF2D4A2EB92EF32EBE
:040010001A2F3A2F3A
:10010C0055309600AA3096009514080064008001C2
:10011C000131890B8D2800342200970121009E1794
:10012C001E088F3910389E00FC309E051D100800EB
:10013C0023001513710892007008910015161515FF
:10014C008B1386208B17151108002100190887398D
:10015C00703899001708C1391638970017141A1AF5
:10016C000800B528210095131F308C0023008C014A
:10017C00083024008C0021008E0123008E01220007
:10018C008E0108002300151371089200700891006D
:10019C001512951615157308940072089300951294
:1001AC008B1386208B1715110800C1308400873003
:1001BC00850012005A3A031D0034C0308400873089
:1001CC0085000008F00004307002031800340008A9
:1001DC000800F4017408F000D030F101F035F10D95
:1001EC00700784008730713D85001200FF3AF200E1
:1001FC001200FF3AF204031D3A2974080319003463
:10020C007408F000CE30F101F035F10D7007840068
:10021C008730713D8500003FF200013FF300F20092
:10022C005A30F3017206031D00347408F000CE300E
:10023C00F101F035F10D700784008730713D8500B8
:10024C000008F20003307202031800347408F00046
:10025C00CE30F101F035F10D700784008730713D1F
:10026C00850000080239080007307406031D722946
:10027C007408F000D030F101F035F10D70078400F6
:10028C008730713D8500003FF200013FF300F20022
:10029C005A30F3017206031D00347408F000D0309C
:1002AC00F101F035F10D700784008730713D850048
:1002BC000008F20003307202031800347408F000D6
:1002CC00D030F101F035F10D700784008730713DAD
:1002DC0085000008023908000830F40A740203187B
:1002EC000800F0282000F330B401B501B601B701C5
:1002FC008400873085000008F000F101F100F00166
:10030C007008F3007108F400F501F6017308B404E9
:10031C007408B5047508B6047608B704F230840086
:10032C000008F000F101F201F301B4047108B50406
:10033C007208B6047308B70437083604350434045D
:10034C000319B129340FAF29350A360437040319C0
:10035C00B129FB01012AF930B401B501B601B7018D
:10036C008400873085000008F300F201F101F001F0
:10037C007008B4047108B5047208B6047308B704A5
:10038C00F83084000008F000F101F201F30171086B
:10039C00F3007008F200F101F0017008B404710868
:1003AC00B5047208B6047308B704F730840000086B
:1003BC00F000F101F201F3017208F3007108F20090
:1003CC007008F100F0017008B4047108B5047208EB
:1003DC00B6047308B704F63084000008F000F1018D
:1003EC00F201F301B4047108B5047208B604730881
:1003FC00B704FB01FB0A64000800D1001A08F300E3
:10040C000730F336890B072A7308BE000130BE058E
:10041C00640002302000BE06103070020318222A3D
:10042C000A30CF00700EF0390438C400BE1C202AEC
:10043C00C4152E2AC4112E2A0630CF004030C3001A
:10044C00BE1C2A2AC3172B2AC3137008C4007115AB
:10045C000230D4007108D3000330D305530B3D2A6E
:10046C007208860087010108C500D40A542A03309B
:10047C005306031D542A7208860087010108C50023
:10048C0072088600413FC60072088600423FC700D2
:10049C0072088600433FC8000430D4077B08031958
:1004AC00BE2A71165408433E860087015108340752
:1004BC008100D40A5408433E86003408F300350802
:1004CC00F4003608F5003708F6005108F700F8017B
:1004DC00F901FA01F3077808F43D7908F53D7A083B
:1004EC00F63D7408F3007508F4007608F500F60183
:1004FC0073088100D40A5408433E86003408F30084
:10050C003508F4003608F5003708F6005108F700F6
:10051C00F801F901FA01F3077808F43D7908F53D83
:10052C007A08F63D7508F3007608F400F501F6013B
:10053C0073088100D40A5408433E86003408F30043
:10054C003508F4003608F5003708F6005108F700B6
:10055C00F801F901FA01F3077808F43D7908F53D43
:10056C007A08F63D7608F300F401F501F601E52A68
:10057C005408433E86008701510834078100D40A91
:10058C005408433E86003408F3003508F40036085E
:10059C00F5003708F6005108F700F801F901FA01E7
:1005AC00F3077808F43D7908F53D7A08F63D7408B0
:1005BC00F3007508F4007608F500F6017308810065
:1005CC00D40A5408433E8600870171088100D40A7E
:1005DC00D3015408090709070907D0004F08013E49
:1005EC00D2002000500852020318212B5208F300AD
:1005FC00F336F336F3367308433E86000130870139
:10060C00F40052080739890A0C2BF435890B0B2B93
:10061C00740801050319142B0130D3063E12531C28
:10062C001A2B1830D3063E16D336D3133E1AD317D3
:10063C00D20A6400F72A5408433E86008701530807
:10064C008100C030D40A21009505033095042000A8
:10065C00D30026303E11BE113E14BE16D201D0007E
:10066C00640022008E152730F300F530890B3C2BEB
:10067C00F30B3C2B000022008E11C430200095009F
:10068C000B118B12BE19A22B0B1D482B0000200046
:10069C00500852020318692B3E19602B3E18592B37
:1006AC0022008C165B2B22008C12C430200095008B
:1006BC003E15852B203022008C06C430200095007E
:1006CC003E11D20A852B22008C12C03021009505D8
:1006DC000330950443302000950064002000BE12C6
:1006EC004F08D2005408090709070907D00053081E
:1006FC000319822BD303852B9501BE15A22BBE1A91
:10070C00A02B5208F300F336F336F3367308433E4E
:10071C00860001308701F40052080739890A972BAB
:10072C00F435890B962B7408010503199F2B3E1485
:10073C00A02B3E100B11482B0B1122008C12080021
:10074C00B820AB209220782122008E16DB202000CE
:10075C00BA00EF20BE000B178B1720000C08A0006E
:10076C000230A0050C08A4000130A4050C08A80058
:10077C000430A8050C08AC001030AC050C08B00017
:10078C001430B0053006031D022C0A30B8000F30AF
:10079C0032020318D52BF930B9053914FC2B233050
:1007AC003202031CDF2B313032020318DF2B3910DD
:1007BC00FE2B323032025530031CEC2B3202031864
:1007CC00EB2BFA30B905B914FC2B55303202031C53
:1007DC00F52B633032020318F52BB910FE2B643065
:1007EC003202031CFE2BFC30B90539156430BB00FA
:1007FC00B20AA901AD01032CB2013B080319322C3A
:10080C00BB031E2C22008E15362C3C08BC0AD500CE
:10081C0003305502031C362C083022008E062000B3
:10082C00BC01362CBC0A3C030319362C122C342C7C
:10083C0039080739D500D6015608003A0319272C78
:10084C001D2C5508013A0319082C033A03190B2CDB
:10085C00063A0319182C1D2CF830B90522008E11FC
:10086C002000380803193F2C3008031D4B2FB80308
:10087C004B2F391C772CDB0104305B0203184B2FF8
:10088C005B0809070907213E860087015B080907F9
:10089C000907203E84008501000801060319752C08
:1008AC005B0809070907203E86000108031D672C19
:1008BC000F30F0003F30F101F2005B080322200002
:1008CC0039105B0809070907213E860087015B0880
:1008DC0009070907203E8400850100088100DB0A16
:1008EC00422CB91CB22CDC0104305C0203184B2FD7
:1008FC005C0809070907213E860087015C08090787
:10090C000907203E84008501000801060319B02C5C
:10091C005C0809070907203E86000108031DA12C6D
:10092C000930F0003F30F101F2005C080322200096
:10093C00B91022008E1120005C0809070907213E1E
:10094C00860087015C0809070907203E84008501A1
:10095C0000088100DC0A7A2C391D472DDD0104309A
:10096C005D0203184B2F5D0809070907213E86001D
:10097C0087015D0809070907203E840085010008EE
:10098C0001060319452D5D0809070907203E86005D
:10099C000108031D362DC130840087308500000806
:1009AC00BF00C03084000008C0003A08C1001630F7
:1009BC00F0000730F1003F30F2005D0803220630F2
:1009CC002000D6001330D500AD30890BEB2CD50BA5
:1009DC00EB2CD60BEB2C0032640022008E15C030B1
:1009EC00F0000730F1009E20640006302000D60095
:1009FC001330D500AD30890B012DD50B012DD60B45
:100A0C00012D00326400C030F0000730F1002000EE
:100A1C005D08F200F301C820C130F0000730F1008E
:100A2C005A30F200F301C8206400DB202000BA0029
:100A3C00391122008E11C1308400873085000008E6
:100A4C002000BF00C03084000008C0003A08C1007C
:100A5C001630F0000730F1003F30F2005D08032241
:100A6C0020005D0809070907213E860087015D0803
:100A7C0009070907203E8400850100088100DD0A72
:100A8C00B52CDE0104305E0203184B2F5E080907FB
:100A9C000907213E860087015E0809070907203EE9
:100AAC008400850100080106031D9F2E3F2F5E0860
:100ABC0009070907203E860087010108031DA92E9E
:100ACC005E0809070907223E86000A300102031856
:100ADC00772D0430F0003F30F101F2005E08032264
:100AEC00A92E0A30F0003F30F101F2005E0803221B
:100AFC0027302000D500F530890B822DD50B822DA7
:100B0C000A30F0003F30F101F20020005E080322B1
:100B1C0027302000D500F530890B922DD50B922D66
:100B2C000A30F0003F30F101F20020005E08032291
:100B3C0020005E0809070907233E86008701810112
:100B4C00A92E5E0809070907203E860087010108C7
:100B5C00031DA92E5E0809070907223E86000A30EC
:100B6C0001020318CF2D5E080319C02D02305E065A
:100B7C00031DC72D3F30F001F101F2005E08032286
:100B8C00A92E0230F0003F30F101F2005E08032282
:100B9C00A92E0A30F0003F30F101F2005E0803226A
:100BAC0027302000D500F530890BDA2DD50BDA2D46
:100BBC000A30F0003F30F101F20020005E08032201
:100BCC0027302000D500F530890BEA2DD50BEA2D06
:100BDC00962D02305E025E08031C112E09070907D0
:100BEC00203E860087010108031DA92E5E08090717
:100BFC000907223E86000A3001020318A92E023092
:100C0C005E02031CA92E0730F0003F30F101F20008
:100C1C005E080322A92E09070907203E86008701DA
:100C2C000108031DA92E5E0809070907223E86004C
:100C3C000A30010203182A2E0430F0003F30F10173
:100C4C00F2005E080322A92E0A30F0003F30F101B9
:100C5C00F2005E08032227302000D500F530890B06
:100C6C00352ED50B352E0A30F0003F30F101F20055
:100C7C0020005E08032227302000D500F530890BB8
:100C8C00452ED50B452E962D02305E025E08031CB8
:100C9C00662E09070907203E860087010108031903
:100CAC005F2E0230F0003F30F101F2005E080322AB
:100CBC00A92E3F30F001F101F2005E080322A92EAB
:100CCC0009070907203E860087010108031DA92E8C
:100CDC005E0809070907223E86000A300102031844
:100CEC007F2E0430F0003F30F101F2005E08032249
:100CFC00A92E0A30F0003F30F101F2005E08032209
:100D0C0027302000D500F530890B8A2ED50B8A2E82
:100D1C000A30F0003F30F101F20020005E0803229F
:100D2C0027302000D500F530890B9A2ED50B9A2E42
:100D3C00962D3A088400043004020318A92E803141
:100D4C0002300407820020005E0809070907213ED3
:100D5C00860087015E0809070907203E840085018B
:100D6C00000881003F2F5E0809070907203E860016
:100D7C00870101080319EB2E5E0809070907223EBB
:100D8C0086000A3001025E08031CE42E09070907DD
:100D9C00233E86000108031DE32E0530F0003F3092
:100DAC00F101F2005E08032220005E080907090722
:100DBC00233E860087018101810A5E080907090725
:100DCC00223E86008701810A492F5E080907090720
:100DDC00223E860087018101492F5E080907090719
:100DEC00203E8600870101080319EB2E5E080907D7
:100DFC000907223E86000A3001025E08031CE42E1D
:100E0C0009070907233E86000108031DE32E5E082F
:100E1C000319142F02305E06031D182F3F30F0010A
:100E2C00F00AD62E0330D42E02305E025E08031C6C
:100E3C00BA2E09070907203E86008701010803190D
:100E4C00EB2E5E0809070907223E860032300102AC
:100E5C005E08031CE42E09070907233E86000108DF
:100E6C00031DE32E0830D42E02305E020318492FE6
:100E7C00B92E3A088400043004020318492F80313B
:100E8C00063004078200DE0A482D39080739031D95
:100E9C00A82F0C081739031DA82FDA01722F073061
:100EAC005A06031D702FD030F0000730F1009E2041
:100EBC00D030F0000730F10020003E080239F2007B
:100ECC00F301C820D130F0000730F1005A30F200A5
:100EDC00F301C8202000DA0A08305A020318A52FA3
:100EEC005A08D500D030D601D535D60D550784001B
:100EFC008730563D85001200FF3AD7001200FF3AAA
:100F0C00D704031D552F5A08F000D030F101F035ED
:100F1C00F10DF0070730F13D3E080239F200F30104
:100F2C00C82020005A08F000D130F101F035F10D45
:100F3C00F0070730F13D5A30F200F301C8202200CF
:100F4C008E12B32B21001708C1390C389700000002
:100F5C006300000021001708C1390A38970000000F
:100F6C006300000021001708C139163897000000F3
:100F7C006400B32BFF34FF34FF34FF34FF34FF34F1
:100F8C00FF34FF34FF34FF34FF34FF34FF34FF34BD
:100F9C00FF34FF34FF34FF34FF34FF34FF34FF34AD
:100FAC00FF34FF34FF34FF34FF34FF34FF34FF349D
:100FBC00FF34FF34FB0120308400003085002330E7
:060FCC008C202000A62B82
:100FDC00433404345F3441341F34FB345F344134C4
:100FEC0078345634343412345F3442341034003490
:020FFC005F3460
:020000040001F9
:080000000000070000000700EA
:04000E004CFDFFD7CF
:00000001FF
