:100000000128E02FAF2DF92D412E9C2E0B2F452FCF
:040010006C2F8C2F96
:1002CC0055309600AA309600951408006400800101
:1002DC000131890B6D2900342200970121009E17F2
:1002EC001E088F3910389E00FC309E051D1008002A
:1002FC00230015137108920070089100151615153E
:10030C008B1366218B1715110800210019088739EA
:10031C00703899001708C1391638970017141A1A33
:10032C0008009529210095131F308C0023008C01A7
:10033C00083024008C0021008E0123008E01220045
:10034C008E010800230015137108920070089100AB
:10035C0015129516151573089400720893009512D2
:10036C008B1366218B1715110800C1308400873060
:10037C00850012005A3A031D0034C03084008730C7
:10038C0085000008F00004307002031800340008E7
:10039C0008002000F330B401B501B601B7018400A8
:1003AC00873085000008F000F101F100F0017008C1
:1003BC00F3007108F400F501F6017308B404740835
:1003CC00B5047508B6047608B704F230840000084A
:1003DC00F000F101F201F301B4047108B5047208E4
:1003EC00B6047308B704370836043504340403190B
:1003FC00082A340F062A350A360437040319082A4A
:10040C00B801582AF930B401B501B601B70184001E
:10041C00873085000008F300F201F101F00170084B
:10042C00B4047108B5047208B6047308B704F83044
:10043C0084000008F000F101F201F3017108F300EF
:10044C007008F200F101F0017008B4047108B504F1
:10045C007208B6047308B704F73084000008F00083
:10046C00F101F201F3017208F3007108F200700857
:10047C00F100F0017008B4047108B5047208B604F8
:10048C007308B704F63084000008F000F101F201A3
:10049C00F301B4047108B5047208B6047308B70408
:1004AC00B801B80A64000800D1001A08F30007303C
:1004BC00F336890B5E2A7308FD000130FD056400DC
:1004CC000230FD06103070020318792A0A30200021
:1004DC00CF00700EF0390438C400FD1C772AC41507
:1004EC00862AC411862A06302000CF004030C30073
:1004FC00FD1C822AC317832AC3137008C40071150C
:10050C000230D4007108D3000330D305530B952A65
:10051C007208860087010108C500D40AAC2A033092
:10052C005306031DAC2A7208860087010108C5001A
:10053C0072088600413FC60072088600423FC70021
:10054C0072088600433FC8000430D40738080319EA
:10055C00162B71165408433E860087015108340748
:10056C008100D40A5408433E86003408F300350851
:10057C00F4003608F5003708F6005108F700F801CA
:10058C00F901FA01F3077808F43D7908F53D7A088A
:10059C00F63D7408F3007508F4007608F500F601D2
:1005AC0073088100D40A5408433E86003408F300D3
:1005BC003508F4003608F5003708F6005108F70046
:1005CC00F801F901FA01F3077808F43D7908F53DD3
:1005DC007A08F63D7508F3007608F400F501F6018B
:1005EC0073088100D40A5408433E86003408F30093
:1005FC003508F4003608F5003708F6005108F70006
:10060C00F801F901FA01F3077808F43D7908F53D92
:10061C007A08F63D7608F300F401F501F6013D2B5E
:10062C005408433E86008701510834078100D40AE0
:10063C005408433E86003408F3003508F4003608AD
:10064C00F5003708F6005108F700F801F901FA0136
:10065C00F3077808F43D7908F53D7A08F63D7408FF
:10066C00F3007508F4007608F500F60173088100B4
:10067C00D40A5408433E8600870171088100D40ACD
:10068C00D3015408090709070907D0004F08013E98
:10069C00D2002000500852020318792B5208F300A4
:1006AC00F336F336F3367308433E86000130870188
:1006BC00F40052080739890A642BF435890B632B33
:1006CC007408010503196C2B0130D3067D12531CE1
:1006DC00722B1830D3067D16D336D3137D1AD3174D
:1006EC00D20A64004F2B5408433E860087015308FE
:1006FC008100C030D40A21009505033095042000F8
:10070C00D30026307D11FD117D14FD16D201D000D1
:10071C00640022008E152730F300F530890B942BE2
:10072C00F30B942B000022008E11C4302000950096
:10073C000B118B12FD19FA2B0B1DA02B00002000A6
:10074C00500852020318C12B7D19B82B7D18B12B00
:10075C0022008C16B32B22008C12C4302000950082
:10076C007D15DD2B203022008C06C4302000950036
:10077C007D11D20ADD2B22008C12C0302100950590
:10078C00033095044330200095006400FD122000D6
:10079C004F08D2005408090709070907D00053086D
:1007AC000319DA2BD303DD2B9501FD15FA2BFD1A5A
:1007BC00F82B5208F300F336F336F3367308433E46
:1007CC00860001308701F40052080739890AEF2BA3
:1007DC00F435890BEE2B740801050319F72B7D14E6
:1007EC00F82B7D100B11A02B0B1122008C12080082
:1007FC0098218B217221CF2122008E16BB21200043
:10080C00BB000B178B1720000C08A0000230A005B2
:10081C000C08A4000130A4050C08A8000430A8059D
:10082C000C08AC001030AC050C08B0001430B0054E
:10083C003006031D582C0A30B9000F303202031851
:10084C002B2CF930BA053A14522C23303202031CEB
:10085C00352C313032020318352C3A10542C3230EE
:10086C0032025530031C422C32020318412CFA3050
:10087C00BA05BA14522C55303202031C4B2C63307F
:10088C00320203184B2CBA10542C64303202031C65
:10089C00542CFC30BA053A156430BC00B20AA901DC
:1008AC00AD01592CB2013C080319882CBC03742CE3
:1008BC0022008E158C2C3D08BD0AFB0003307B02F8
:1008CC00031C8C2C083022008E062000BD018C2CC1
:1008DC00BD0A3D0303198C2C682C8A2C3A08073965
:1008EC00FB00FC017C08003A03197D2C732C7B085F
:1008FC00013A03195E2C033A0319612C063A0319C9
:10090C006E2C732CF830BA0522008E112000390899
:10091C000319952C3008031D9D2FB9039D2F3A1CEC
:10092C00CD2CD601560809070907213E8600870100
:10093C00560809070907203E8400850100080106B6
:10094C000319C72C560809070907203E8600010821
:10095C00031DB92C0F30F0003F30F101F2005608A6
:10096C005A2220003A10560809070907213E860032
:10097C008701560809070907203E840085010008F5
:10098C0081000430D60A560203189D2F982CBA1CED
:10099C00082DD7010430570203189D2F570809075B
:1009AC000907213E86008701570809070907203EE1
:1009BC0084008501000801060319062D5708090754
:1009CC000907203E86000108031DF72C0930F000B2
:1009DC003F30F101F20057085A222000BA102200D1
:1009EC008E112000570809070907213E8600870150
:1009FC00570809070907203E84008501000881007B
:100A0C00D70AD02C3A1D992DD8010430580203185E
:100A1C009D2F580809070907213E860087015808B1
:100A2C0009070907203E8400850100080106031907
:100A3C00972D580809070907203E86000108031D59
:100A4C00882DC1308400873085000008BF00C0307D
:100A5C0084000008C0003B08C1001630F0000730CD
:100A6C00F1003F30F20058085A220630FC001330D7
:100A7C00FB00AE30890B402DFB0B402DFC0B402DA9
:100A8C00640022008E15C030F0000730F1007E218A
:100A9C0064000630FC001330FB00AE30890B542D83
:100AAC00FB0B542DFC0B542D6400C030F0000730B0
:100ABC00F10020005808F200F301A821C130F00029
:100ACC000730F1005A30F200F301A8216400BB2179
:100ADC002000BB003A1122008E11C13084008730F7
:100AEC00850000082000BF00C03084000008C00052
:100AFC003B08C1001630F0000730F1003F30F20027
:100B0C0058085A222000580809070907213E860078
:100B1C008701580809070907203E84008501000851
:100B2C008100D80A0B2DD9010430590203189D2FCE
:100B3C00590809070907213E86008701590809074A
:100B4C000907203E8400850100080106031DF12ED3
:100B5C00912F590809070907203E860087010108D3
:100B6C00031DFB2E590809070907223E86000A308F
:100B7C0001020318C92D0430F0003F30F101F200DE
:100B8C0059085A22FB2E0A30F0003F30F101F200D6
:100B9C0059085A222730FB00F530890BD32DFB0B5B
:100BAC00D32D00000A30F0003F30F101F20020009C
:100BBC0059085A222730FB00F530890BE32DFB0B2B
:100BCC00E32D00000A30F0003F30F101F20020006C
:100BDC0059085A222000590809070907233E8600A4
:100BEC0087018101FB2E590809070907203E860061
:100BFC0087010108031DFB2E590809070907223E2E
:100C0C0086000A3001020318212E59080319122EEE
:100C1C0002305906031D192E3F30F001F101F2008C
:100C2C0059085A22FB2E0230F0003F30F101F2003D
:100C3C0059085A22FB2E0A30F0003F30F101F20025
:100C4C0059085A222730FB00F530890B2B2EFB0B51
:100C5C002B2E00000A30F0003F30F101F200200092
:100C6C0059085A222730FB00F530890B3B2EFB0B21
:100C7C003B2E0000E82D023059025908031C632E4C
:100C8C0009070907203E860087010108031DFB2E7A
:100C9C00590809070907223E86000A300102031889
:100CAC00FB2E02305902031CFB2E0730F0003F30A4
:100CBC00F101F20059085A22FB2E09070907203EC0
:100CCC00860087010108031DFB2E59080907090737
:100CDC00223E86000A30010203187C2E0430F000FC
:100CEC003F30F101F20059085A22FB2E0A30F00075
:100CFC003F30F101F20059085A222730FB00F53041
:100D0C00890B862EFB0B862E00000A30F0003F303C
:100D1C00F101F200200059085A222730FB00F5306F
:100D2C00890B962EFB0B962E0000E82D02305902F3
:100D3C005908031CB82E09070907203E86008701B5
:100D4C0001080319B12E0230F0003F30F101F2001E
:100D5C0059085A22FB2E3F30F001F101F2005908DC
:100D6C005A22FB2E09070907203E8600870101083D
:100D7C00031DFB2E590809070907223E86000A307D
:100D8C0001020318D12E0430F0003F30F101F200C3
:100D9C0059085A22FB2E0A30F0003F30F101F200C4
:100DAC0059085A222730FB00F530890BDB2EFB0B40
:100DBC00DB2E00000A30F0003F30F101F200200081
:100DCC0059085A222730FB00F530890BEB2EFB0B10
:100DDC00EB2E0000E82D3B088400043004020318BD
:100DEC00FB2E8031023004078200200059080907CD
:100DFC000907213E86008701590809070907203E8B
:100E0C008400850100088100912F59080907090702
:100E1C00203E86008701010803193D2F5908090758
:100E2C000907223E86000A3001025908031C362F9E
:100E3C0009070907233E86000108031D352F0530DD
:100E4C00F0003F30F101F20059085A2220005908F5
:100E5C0009070907233E860087018101810A590889
:100E6C0009070907223E86008701810A9B2F590832
:100E7C0009070907223E8600870181019B2F59082B
:100E8C0009070907203E86008701010803193D2F39
:100E9C00590809070907223E86000A300102590841
:100EAC00031C362F09070907233E86000108031D82
:100EBC00352F59080319662F02305906031D6A2F66
:100ECC003F30F001F00A282F0330262F0230590250
:100EDC005908031C0C2F09070907203E86008701BF
:100EEC00010803193D2F590809070907223E8600FE
:100EFC00323001025908031C362F09070907233E1B
:100F0C0086000108031D352F0830262F02305902A8
:100F1C0003189B2F0B2F3B0884000430040203188A
:100F2C009B2F8031063004078200D90A9A2D3A088B
:100F3C000739031DA82F0C081739031DA82F2200F1
:100F4C008E12092C21001708C1390C3897000000AB
:100F5C006300000021001708C1390A38970000000F
:100F6C006300000021001708C139163897000000F3
:100F7C006400092CFF34FF34FF34FF34FF34FF349A
:100F8C00FF34FF34FF34FF34FF34FF34FF34FF34BD
:100F9C00FF34FF34FF34FF34FF34FF34FF34FF34AD
:100FAC00FF34FF34FF34FF34FF34FF34FF34FF349D
:100FBC00FF34FF34FD0120308400003085002330E5
:060FCC006C212000FE2B49
:100FDC00433404345F3441341F34FB345F344134C4
:100FEC0078345634343412345F3442341034003490
:020FFC005F3460
:020000040001F9
:080000000000070000000700EA
:04000E004CFDFFD7CF
:00000001FF
